:020000040800F2
:1000000000500020452B000805240008112400089A
:10001000172400081D240008232400080000000005
:10002000000000000000000000000000292400087B
:100030003524000800000000412400084D24000879
:100040008D2B00088D2B00088D2B00088D2B0008B0
:100050008D2B00088D2B00088D2B00088D2B0008A0
:100060005924000867240008752400088D2B000817
:100070008D2B00088D2B00088D2B00088D2B000880
:100080008D2B00088D2B00088D2B00088D2B000870
:100090008D2B00088D2B00088D2B00088324000871
:1000A0008D2B00089D2400088D2B00088D2B000847
:1000B000B1240008C5240008D92400088D2B0008AD
:1000C0008D2B00088D2B00088D2B00088D2B000830
:1000D0008D2B00088D2B00088D2B00088D2B000820
:1000E0008D2B00088D2B00088D2B000800000000D0
:1000F0000000000000000000000000000000000000
:0C01000000000000000000005FF808F1A3
:10010C0010B5054C237833B9044B13B10448AFF345
:10011C0000800123237010BDA0000020000000000F
:10012C002866000808B5034B1BB103490348AFF31D
:10013C00008008BD00000000A40000202866000814
:10014C00034613F8012B002AFBD1181A013870470B
:10015C0080B588B000AF07F1100300221A605A6016
:10016C009A60DA605D4B9B695C4A43F010039361C3
:10017C005A4B9B6903F01003FB60FB68574B9B6960
:10018C00564A43F020039361544B9B6903F02003C0
:10019C00BB60BB68514B9B69504A43F004039361AD
:1001AC004E4B9B6903F004037B607B684B4B9B6954
:1001BC004A4A43F008039361484B9B6903F00803D8
:1001CC003B603B6800224FF40051454803F07FF838
:1001DC00002245F20331434803F079F800224FF432
:1001EC008071414803F073F84FF400533B610123D5
:1001FC007B610023BB610123FB6107F110031946EE
:10020C00374802F0C9FEFC233B61384B7B6102236B
:10021C00BB6107F110031946334802F0BDFE41F2F1
:10022C0003333B6101237B610223BB610223FB612E
:10023C0007F1100319462B4802F0AEFE4FF4804331
:10024C003B6101237B610223BB610323FB6107F14B
:10025C0010031946234802F09FFE4FF480733B6154
:10026C0001237B610223BB610223FB6107F11003B5
:10027C0019461D4802F090FE4FF400433B610023E9
:10028C007B610223BB6107F110031946164802F08B
:10029C0083FE00220521082002F02BFE082002F02C
:1002AC0044FE00220521092002F023FE092002F061
:1002BC003CFE002205210A2002F01BFE0A2002F05F
:1002CC0034FE00220521172002F013FE172002F045
:1002DC002CFE00BF2037BD4680BD00BF0010024081
:1002EC0000100140000C01400008014000001110FA
:1002FC0080B500AF02F046FC00F08EF8FFF728FF47
:10030C0002F03EFB02F028F902F078F902F0C2F993
:10031C0002F03CFA01F0A4FF01F034FF02F05AFBAA
:10032C004FF4C87002F090FC00F0D4F84FF4C87091
:10033C0002F08AFC2C4804F067FC2C4804F064FCA6
:10034C002B4804F061FC01F0BEFD4FF4C87002F0C4
:10035C007BFC052001F08CFD01F020FE00212548DE
:10036C0004F0D8FC0421234804F0D4FC1E4804F00B
:10037C00F9FB1F4B1B686FF001021A611C4B1B68C9
:10038C0000225A6202F090FC03461B4A136002F0F2
:10039C007FFC0346194A1360174B1B681A46174B10
:1003AC001B681749174805F0FFFC1648FFF7C8FEF5
:1003BC0003469AB24FF0FF331249134805F057FB2E
:1003CC004FF47A7002F040FC4FF400410F4802F0F9
:1003DC0067FF0346002BF3D00D4B00221A600D4B28
:1003EC0000221A70ECE700BF94020020BC01002030
:1003FC004C02002004020020BC000020C0000020A1
:10040C0040660008100100201C0300200008014079
:10041C00E4000020F000002080B594B000AF07F19C
:10042C00280328220021184605F0B6FC07F1140316
:10043C0000221A605A609A60DA601A613B1D002231
:10044C001A605A609A60DA600923BB624FF48033F9
:10045C00FB6200233B630123BB6301233B64022348
:10046C007B644FF48033BB644FF4C013FB6407F11F
:10047C002803184602F068FF0346002B01D001F058
:10048C00F1FC0F237B610223BB610023FB614FF462
:10049C0080633B6200237B6207F114030221184640
:1004AC0003F0D2F90346002B01D001F0DBFC012351
:1004BC007B604FF40073BB603B1D184603F05EFB82
:1004CC000346002B01D001F0CDFC00BF5037BD46D8
:1004DC0080BD000080B58AB000AF0121864804F0D1
:1004EC006FF80346DAB2854B1A700221824804F089
:1004FC0067F80346DAB2824B1A7003217E4804F087
:10050C005FF80346DAB27F4B1A7004217A4804F084
:10051C0057F80346DAB27C4B1A700521764804F082
:10052C004FF80346DAB2794B1A700621724804F080
:10053C0047F80346764A1360754B1B68022B03D9A8
:10054C00744B01221A7002E0714B00221A606B4B43
:10055C001B78DBB21A463B1D6F49184605F024FC8C
:10056C003B1D1846FFF7ECFD03469AB2391D4FF0C0
:10057C00FF336A4805F07BFA614B1B78DBB21A46F5
:10058C003B1D6749184605F00FFC3B1D1846FFF74D
:10059C00D7FD03469AB2391D4FF0FF335F4805F083
:1005AC0066FA584B1B78DBB21A463B1D5D49184660
:1005BC0005F0FAFB3B1D1846FFF7C2FD03469AB245
:1005CC00391D4FF0FF33554805F051FA4E4B1B784F
:1005DC00DBB21A463B1D5449184605F0E5FB3B1DA2
:1005EC001846FFF7ADFD03469AB2391D4FF0FF33A5
:1005FC004A4805F03CFA454B1B78DBB21A463B1DCA
:10060C004A49184605F0D0FB3B1D1846FFF798FDEC
:10061C0003469AB2391D4FF0FF33404805F027FAD4
:10062C003B4B1B681A463B1D4149184605F0BCFB69
:10063C003B1D1846FFF784FD03469AB2391D4FF057
:10064C00FF33364805F013FA2C4B1B78DBB2002B2A
:10065C0013D02B4B1B78DBB2002B0ED0294B1B7805
:10066C00DBB2002B09D0284B1B78DBB2002B04D05B
:10067C00264B1B78DBB2002B36D12E4B1B781A463F
:10068C0001211D4803F082FF2A4B1B781A460221D8
:10069C00194803F07BFF274B1B781A460321164899
:1006AC0003F074FF234B1B781A460421124803F005
:1006BC006DFF204B1B781A4605210F4803F066FF8F
:1006CC001C4B1A780D4B1A701A4B1A780C4B1A706B
:1006DC00184B1A780B4B1A70164B1A780A4B1A7067
:1006EC00144B1A78094B1A704FF4967002F0ACFA4E
:1006FC0000BF2837BD4680BD5001002013000020EC
:10070C001400002015000020160000201700002007
:10071C00E4000020F0000020506600081C030020BC
:10072C007066000890660008B0660008D066000885
:10073C00F06600080000002080B500AF0022012107
:10074C00104802F0C4FD002202210E4802F0BFFD49
:10075C0000224FF480710C4802F0B9FD00224FF4D6
:10076C008071084802F0B3FD00224FF40071054877
:10077C0002F0ADFD00224FF48051024802F0A7FDBB
:10078C0000BF80BD000C01400008014080B582B064
:10079C0000AF0346FB71FB79033B042B2DD801A260
:1007AC0052F823F0C5070008D1070008DD07000840
:1007BC00EB070008F907000801220121134802F099
:1007CC0086FD1FE001220221104802F080FD19E095
:1007DC0001224FF480710E4802F079FD12E00122E3
:1007EC004FF48071094802F072FD0BE001224FF4C6
:1007FC000071064802F06BFD04E0FFF79DFF01F06D
:10080C00B9FB00BF00BF0837BD4680BD000C0140DE
:10081C000008014080B582B000AF786001F0BEFBEB
:10082C0001F05AFB7B68092B04DC7968012001F08C
:10083C001FFC0EE07B68092B07DD7B68632B04DC57
:10084C007968022001F014FC03E07968032001F0C0
:10085C000FFC00BF0837BD4680BD80B582B000AF2D
:10086C007860396001F09AFB01F036FB3B68092B8C
:10087C0004DC3968012001F0FBFB09E03B68092B23
:10088C0006DD3B68632B03DC3968022001F0F0FBCA
:10089C007B68DBB201221946032001F08FFB00BFFD
:1008AC000837BD4680BD000080B500AF01F014FBD9
:1008BC0001F074FB01F010FB624B1B78DBB2002BD8
:1008CC0000F0AC80604B1B78DBB2062B00F2828010
:1008DC0001A252F823F000BF010900082109000809
:1008EC00410900086109000881090008A1090008F4
:1008FC00C109000800220A21012001F05FFB00223F
:10090C000F21022001F05AFB00220F21032001F0DD
:10091C0055FB6FE000220F21012001F04FFB00225C
:10092C000A21022001F04AFB00220F21032001F0D2
:10093C0045FB5FE000220F21012001F03FFB00226C
:10094C000F21022001F03AFB00220A21032001F0C2
:10095C0035FB4FE000220F21012001F02FFB00227C
:10096C000A21022001F02AFB00220F21032001F0B2
:10097C0025FB3FE000220A21012001F01FFB002291
:10098C000F21022001F01AFB00220F21032001F09D
:10099C0015FB2FE000220A21012001F00FFB0022A1
:1009AC000A21022001F00AFB00220A21032001F097
:1009BC0005FB1FE000220A21012001F0FFFA0022B2
:1009CC000A21022001F0FAFA00220A21032001F088
:1009DC00F5FA0FE000220A21012001F0EFFA0022C3
:1009EC000A21022001F0EAFA00220A21032001F078
:1009FC00E5FA00BF144B1B78DBB2052B03D9124B65
:100A0C0000221A7006E0104B1B78DBB20133DAB20D
:100A1C000D4B1A700B4B00221A7011E000220F21A3
:100A2C00012001F0CBFA00220F21022001F0C6FABE
:100A3C0000220F21032001F0C1FA024B01221A708F
:100A4C0000BF80BD0C000020FC00002080B58EB0E3
:100A5C0002AF0346FB80164B1A68FB8807F10C00AB
:100A6C0003210191009313460222124905F09CF9CF
:100A7C0007F10C031846FFF763FB03469AB207F124
:100A8C000C014FF0FF330C4804F0F1FF07F10C039D
:100A9C001846FFF755FB03469AB207F10C014FF0CD
:100AAC00FF33064804F0E3FF00BF3037BD4680BD7E
:100ABC00E40000200C6700081C030020DC0200206E
:100ACC0080B58EB002AF0346FB71164B1A68FB79EA
:100ADC0007F10C00032101910093134602221249E5
:100AEC0005F062F907F10C031846FFF729FB0346E2
:100AFC009AB207F10C014FF0FF330C4804F0B7FF2A
:100B0C0007F10C031846FFF71BFB03469AB207F1DB
:100B1C000C014FF0FF33064804F0A9FF00BF30373B
:100B2C00BD4680BDE4000020206700081C030020A7
:100B3C00DC02002080B58CB002AF124B1B68381D54
:100B4C00032200920222104905F02EF93B1D184693
:100B5C00FFF7F6FA03469AB2391D4FF0FF330B48F4
:100B6C0004F085FF3B1D1846FFF7EAFA03469AB2DC
:100B7C00391D4FF0FF33064804F079FF00BF2837CA
:100B8C00BD4680BDE4000020346700081C03002033
:100B9C00DC02002080B598B000AF78607B681B68E1
:100BAC00AB4A934240F0C08001F0E4F9A94B1B78AA
:100BBC00DBB2002B46D08021A74802F071FB034624
:100BCC00012B13D14FF0FF331E22A449A44804F08B
:100BDC004EFFA44B00221A70FFF7AEFDA24B1B7800
:100BEC00DBB20133DAB2A04B1A7008E0994B002249
:100BFC001A709D4B00221A709C4804F005F89A4B11
:100C0C001B78DBB2052B1DD94FF0FF331822984906
:100C1C00934804F02CFF8F4B00221A70924B002249
:100C2C001A70944B00221A60934B00221A708D4B51
:100C3C0000221A70FFF780FD8B4B00221A708B4834
:100C4C0003F0E2FF8D4B1B78DBB2002B5CD08C48A1
:100C5C0003F0DAFF894B1B78DBB2013B042B63D822
:100C6C0001A252F823F000BF890C0008A10C000867
:100C7C00B90C0008DB0C0008FD0C00087F4B1B783E
:100C8C00DBB21A467F4B1B78DBB219461046FFF7D6
:100C9C00E4FD49E0794B1B78DBB21A467A4B1B78A2
:100CAC00DBB219461046FFF7D8FD3DE001221221B8
:100CBC00032001F083F9714B1B78DBB21A46734B9E
:100CCC001B78DBB219461046FFF7C7FD2CE001225A
:100CDC001321032001F072F9684B1B78DBB21A4622
:100CEC006B4B1B78DBB219461046FFF7B6FD1BE0C9
:100CFC00624B1B78DBB21A46664B1B78DBB219468B
:100D0C001046FFF7AAFD0FE001F048F95C4803F02C
:100D1C0029FF504B1B78DBB283F00103DBB2002BB5
:100D2C0002D0524803F070FF7B681B68B3F1804F10
:100D3C0040F0DA80584B1B88002B1ED0564B1B887A
:100D4C001A4607F10C035549184605F02DF8524B7D
:100D5C001B881846FFF77AFE07F10C031846FFF7BD
:100D6C00EFF903469AB207F10C014FF0FF333C4800
:100D7C0004F07DFE484B00221A80494B1B88002B47
:100D8C001ED0474B1B881A4607F10C0345491846E1
:100D9C0005F00AF8424B1B881846FFF757FE07F17F
:100DAC000C031846FFF7CCF903469AB207F10C0175
:100DBC004FF0FF332A4804F05AFE394B00221A80B8
:100DCC00394B1B78DBB2092B1ED94FF0FF330D22A8
:100DDC003649234804F04BFE00F0B8FD324B00229C
:100DEC001A70334B1B78DBB21E2B05D9FFF7A2FE12
:100DFC002F4B00221A7077E02D4B1B78DBB201339E
:100E0C00DAB22B4B1A706FE0274B1B78DAB2294BF6
:100E1C00A3FB021359080B465B000B44D31ADBB23D
:100E2C00002B4DD10F4B1B78DBB2002B46D0224B45
:100E3C001B78DBB2002B05D001F09CF81E4B002276
:100E4C001A703DE001F0A0F81B4B01221A7037E03C
:100E5C0000080040FD000020000801404467000825
:100E6C001C030020E8000020FE000020BC01002034
:100E7C0064670008E4000020F0000020E10000207E
:100E8C009402002013000020140000201500002004
:100E9C001600002017000020F800002080670008D2
:100EAC00FA0000209C670008FF000020C0670008C3
:100EBC0000010020ABAAAAAA0D00002001F05AF8EC
:100ECC00294B1B68002B08D1284B1B78DBB203F095
:100EDC000203002B01D1FFF7E7FC244B1B78DBB29C
:100EEC000133DAB2214B1A707B681B68204A93429B
:100EFC0036D100F001FE4FF0FF3317221D491E487A
:100F0C0004F0B5FD1D4B1B78DBB21A4607F1440308
:100F1C001B49184604F048FFFFF70EFC174B1B78D3
:100F2C00DBB21846FFF732FC144B1B78DBB21846C9
:100F3C00FFF7C6FD07F144031846FFF701F9034616
:100F4C009AB207F144014FF0FF330B4804F08FFDC8
:100F5C000C4B1B78DBB2002B02D10B4803F002FECA
:100F6C0000BF6037BD4680BDE4000020FF000020BC
:100F7C00002C0140D06700081C030020E800002072
:100F8C00E8670008E10000209402002080B500AF63
:100F9C00082001F0D8FF092001F0D5FF0A2001F04C
:100FAC00D2FF172001F0CFFF00BF80BD80B500AF8E
:100FBC00082001F0E2FF092001F0DFFF0A2001F018
:100FCC00DCFF172001F0D9FF082001F0AEFF09204B
:100FDC0001F0ABFF0A2001F0A8FF172001F0A5FFDC
:100FEC0000BF80BDB0B5B0B000AF0346FB80FFF7CB
:100FFC00CDFFB54B07F1A4041D460FCD0FC495E8EA
:10100C000300206004342180B04B07F18C041D4692
:10101C000FCD0FC495E8030084E80300AC4B07F137
:10102C0074041D460FCD0FC495E8030084E803003B
:10103C00A84B07F15C041D460FCD0FC495E80300C7
:10104C0084E80300A44B07F144041D460FCD0FC4E4
:10105C0095E8030084E80300A04B07F12C041D461F
:10106C000FCD0FC495E8030084E8030001F0E2FD06
:10107C00C7F8BC0007F10803D7F8BC2098491846FC
:10108C0004F092FE974B1B68D7F8BC20D31A322B76
:10109C0009D84FF0FF331B229349944804F0E7FC26
:1010AC00FFF784FF96E18F4AD7F8BC30136000F04D
:1010BC000AFF07F108031846FFF742F803469AB2F5
:1010CC0007F108014FF0FF33884804F0D0FCFB888F
:1010DC00042B31D10421864802F0E2F80346012B9F
:1010EC002AD1FFF763FF834803F08EFD07F1A403B9
:1010FC001846FFF725F803469AB207F1A4014FF002
:10110C00FF337A4804F0B3FC7B4B1B78DBB2013322
:10111C00DAB2794B1A70794803F024FD764B1B78C0
:10112C00DBB2052B08D9744B00221A70734803F0FC
:10113C006BFD704803F016FD6F4B1B78DBB2002B78
:10114C001CD008216A4802F0ABF80346012B06D1EB
:10115C00694B1B78DBB2184600F098F935E1102189
:10116C00634802F09DF80346012B40F02E81624B40
:10117C001B78DBB2184600F021FA26E1604B1B7895
:10118C00DBB2002B00F016815A4803F03DFD5D48A0
:10119C0003F03AFD5B4B1B6800225A62554B1B68EF
:1011AC0000225A62584B01221A7000F0E3FEFB88B1
:1011BC00802B00F0D380802B00F30781402B00F0B4
:1011CC00A780402B00F30181202B55D0202B00F35E
:1011DC00FC80082B02D0102B27D0F6E008214448C5
:1011EC0002F05EF80346012B40F0E68007F18C0319
:1011FC001846FEF7A5FF03469AB207F18C014FF093
:10120C00FF333A4804F033FC404B1B78DBB2032B22
:10121C0005D13E4B00221A70FFF78EFACCE0FFF797
:10122C008BFA3A4B03221A70C6E01021304802F0B8
:10123C0037F80346012B40F0C18007F18C031846A8
:10124C00FEF77EFF03469AB207F174014FF0FF33AD
:10125C00264804F00CFC2D4B1B78DBB2042B05D17B
:10126C002A4B00221A70FFF767FAA7E0FFF764FA1F
:10127C00264B04221A70A1E020211D4802F010F820
:10128C000346012B40F09C8007F18C031846FEF7B7
:10129C0057FF03469AB207F15C014FF0FF33134836
:1012AC0004F0E5FB194B1B78DBB2052B05D1174B72
:1012BC0000221A70FFF740FA82E0FFF73DFA134B59
:1012CC0005221A707CE000BF2C68000844680008F6
:1012DC005C680008746800088C680008A468000842
:1012EC00FC670008F4000020106800081C030020B4
:1012FC000008014094020020E1000020BC01002005
:10130C00F00000204C0200200D000020E80000201E
:10131C004021324801F0C4FF0346012B52D107F1A2
:10132C008C031846FEF70CFF03469AB207F14401F2
:10133C004FF0FF332A4804F09AFB2A4B1B78DBB2A0
:10134C00062B05D1FFF7F8F9264B00221A7039E06D
:10135C00FFF7F2F9234B06221A7033E080211F4865
:10136C0001F09EFF0346012B2ED107F18C0318468A
:10137C00FEF7E6FE03469AB207F12C014FF0FF335D
:10138C00174804F074FB174B1B78DBB2072B0BD1FF
:10139C00144B00221A70FFF7CFF9134B01221A706D
:1013AC00124803F0DFFB0FE0FFF7C6F90D4B0722E5
:1013BC001A7009E000BF08E000BF06E000BF04E0BF
:1013CC0000BF02E000BF00E000BFFFF7EFFD0848E0
:1013DC0003F0C8FBC037BD46B0BD00BF00080140DC
:1013EC001C030020E8000020FD000020BC010020B0
:1013FC004C02002080B582B000AF03460A46FB7158
:10140C001346BB71FB79013B052B39D801A252F86D
:10141C0023F000BF391400084714000855140008C5
:10142C0063140008711400087F140008BB791A4675
:10143C000121154803F0AAF822E0BB791A460221D3
:10144C00114803F0A3F81BE0BB791A4603210E48A0
:10145C0003F09CF814E0BB791A4604210A4803F007
:10146C0095F80DE0BB791A460521074803F08EF874
:10147C0006E0BB791A460621034803F087F800BF43
:10148C0000BF0837BD4680BD5001002080B582B03A
:10149C0000AF0346FB71FB79002B75D0FB79013B48
:1014AC00042B7CD801A252F823F000BFCD14000805
:1014BC00F51400081D150008451500086D150008E9
:1014CC00394B1B78DBB2622B60D8374B1B78DBB205
:1014DC000133DAB2344B1A70334B1B78DBB219463A
:1014EC000120FFF787FF51E0304B1B78DBB2622BFA
:1014FC004ED82E4B1B78DBB20133DAB22B4B1A7061
:10150C002A4B1B78DBB219460220FFF773FF3FE032
:10151C00274B1B78DBB2622B3CD8254B1B78DBB2FC
:10152C000133DAB2224B1A70214B1B78DBB219460D
:10153C000320FFF75FFF2DE01E4B1B78DBB2622B05
:10154C002AD81C4B1B78DBB20133DAB2194B1A7058
:10155C00184B1B78DBB219460420FFF74BFF1BE03E
:10156C00154B1B78DBB2622B18D8134B1B78DBB2F4
:10157C000133DAB2104B1A700F4B1B78DBB21946E1
:10158C000520FFF737FF09E000BF08E000BF06E0C9
:10159C0000BF04E000BF02E000BF00E000BF00BFDE
:1015AC000837BD4680BD00BF13000020140000208A
:1015BC0015000020160000201700002080B582B016
:1015CC0000AF0346FB71FB79002B75D0FB79013B17
:1015DC00042B7CD801A252F823F000BFFD150008A3
:1015EC00251600084D160008751600089D160008F3
:1015FC00394B1B78DBB2002B60D0374B1B78DBB23E
:10160C00013BDAB2344B1A70334B1B78DBB2194600
:10161C000120FFF7EFFE51E0304B1B78DBB2002BC3
:10162C004ED02E4B1B78DBB2013BDAB22B4B1A702F
:10163C002A4B1B78DBB219460220FFF7DBFE3FE09A
:10164C00274B1B78DBB2002B3CD0254B1B78DBB235
:10165C00013BDAB2224B1A70214B1B78DBB21946D4
:10166C000320FFF7C7FE2DE01E4B1B78DBB2002BCF
:10167C002AD01C4B1B78DBB2013BDAB2194B1A7027
:10168C00184B1B78DBB219460420FFF7B3FE1BE0A6
:10169C00154B1B78DBB2002B18D0134B1B78DBB22D
:1016AC00013BDAB2104B1A700F4B1B78DBB21946A8
:1016BC000520FFF79FFE09E000BF08E000BF06E031
:1016CC0000BF04E000BF02E000BF00E000BF00BFAD
:1016DC000837BD4680BD00BF130000201400002059
:1016EC0015000020160000201700002080B594B0D3
:1016FC0000AF786000F0E7FB384B1B78DBB21A4682
:10170C00374B1B7813441A467B6893424BD8334BA8
:10171C001B78DBB21A46324B1B78D31A1A467B68FD
:10172C00934240D32F4B1B78DBB21A4607F10803C8
:10173C002D49184604F038FB07F108031846FEF74C
:10174C00FFFC03469AB207F108014FF0FF3327481C
:10175C0004F08DF9234B1B78DBB21A46244B1B6823
:10176C001344234A1360224B1B6840F2E632934227
:10177C0003D91F4B40F2E7321A601D4B1B68184609
:10178C00FFF748F81A4B1B681A4A1268934220D389
:10179C00194B01221A704FF0FF33192217491348C5
:1017AC0004F065F915E07A6807F13003144918461E
:1017BC0004F0FAFA07F130031846FEF7C1FC0346B1
:1017CC009AB207F130014FF0FF33084804F04FF99B
:1017DC0000E000BF00BF5037BD4680BD0F000020A9
:1017EC001000002012000020BC6800081C03002020
:1017FC00E400002004000020F0000020D468000861
:10180C00F068000880B59EB000AF786000F05BFB1C
:10181C00434B1B78DBB21A46424B1B7813441A46D7
:10182C007B68934262D83E4B1B78DBB21A463D4B29
:10183C001B78D31A1A467B68934257D33A4B1B78C2
:10184C00DBB21A4607F130033849184604F0ACFAFB
:10185C0007F130031846FEF773FC03469AB207F102
:10186C0030014FF0FF33324804F001F92E4B1B7856
:10187C00DBB21A462F4B1B6813442E4A13602D4BB8
:10188C001B6840F2E632934203D92A4B40F2E7320E
:10189C001A60284B1B681846FEF7BCFF254B1B68CB
:1018AC00254A1268934209D3244B01221A704FF037
:1018BC00FF33192222491E4804F0D9F81D4B1B682E
:1018CC001A4607F10C031F49184604F06DFA07F18C
:1018DC000C031846FEF734FC03469AB207F10C01D0
:1018EC004FF0FF33124804F0C2F815E07A6807F1A4
:1018FC0058031549184604F057FA07F158031846CF
:10190C00FEF71EFC03469AB207F158014FF0FF3365
:10191C00074804F0ACF800BF00BF7837BD4680BD67
:10192C000E0000201000002011000020BC680008F0
:10193C001C030020E400002004000020F000002024
:10194C00D468000810690008F068000880B500AF82
:10195C004A4B1B68DBB219460620FFF74BFD00F023
:10196C00B2FA474B1B78DBB2002B04D0454B1B68FB
:10197C000133444A1360424B1B78DBB2033B042B0C
:10198C002FD801A252F823F0A9190008B7190008A2
:10199C00C5190008D3190008E11900083A4B1B7847
:1019AC00DBB21A46394B1A601FE0394B1B78DBB29D
:1019BC001A46364B1A6018E0364B1B78DBB21A46C7
:1019CC00324B1A6011E0344B1B78DBB21A462F4BAA
:1019DC001A600AE0314B1B78DBB21A462B4B1A60AB
:1019EC0003E02A4B0A221A6000BF284B1B68002B0D
:1019FC0025D0244B1A68254B1B689A421FDB1F4BC2
:101A0C001B68002B1BD01F4B00221A604FF0FF33BA
:101A1C000F222349234804F02AF8184B1B68013B7A
:101A2C00164A1360154B1B68FE2B06D84FF0FF337C
:101A3C0016221D491B4804F01AF800F03BF80F4B16
:101A4C001B68002B12D1FEF777FE4FF0FF332222DA
:101A5C001649144804F00BF8084B00221A60144B7A
:101A6C0000221A70064B00221A7004E0034B1B680C
:101A7C001846FEF7CFFE00BF80BD00BFE40000207B
:101A8C00E8000020EC0000201300002008000020DB
:101A9C001400002015000020160000201700002064
:101AAC00286900081C0300203869000850690008E8
:101ABC00F000002080B58AB000AF0C4B1B681A46B2
:101ACC003B1D0B49184604F06FF93B1D1846FEF7F9
:101ADC0037FB03469AB2391D4FF0FF33054803F02C
:101AEC00C6FF00BF2837BD4680BD00BFE400002004
:101AFC00106900081C03002080B500AF064B1B6862
:101B0C0000225A62044803F07FF8034B1B686FF005
:101B1C0001021A6100BF80BD4C02002080B58CB060
:101B2C0000AF7860814803F06FF8804B1B6800228F
:101B3C005A627E4B1B686FF001021A617C4803F0FD
:101B4C0063F87B4B1B6800225A62794B1B686FF061
:101B5C0001021A617B681B68764A934240F09580BB
:101B6C007B681B7F012B40F090804FF0FF330922E4
:101B7C007149724803F07BFF714B1B78DBB2002B71
:101B8C001AD10021786803F02BFC03466D4A1360D0
:101B9C006B4B01221A707B681B681A6A7B681B6886
:101BAC0022F00A021A627B681B681A6A7B681B683F
:101BBC0042F002021A6268E0614B1B78DBB2012B27
:101BCC0063D10021786803F00BFC03465E4A136076
:101BDC007B681B6800225A625B4B1A68594B1B6866
:101BEC009A4207D9584B1A68564B1B68D31A574A56
:101BFC0013600FE0534B1A68534B1B689A4209D978
:101C0C00514B1A684F4B1B68D31A03F57F43FF33B4
:101C1C004E4A13604A4B00221A707B681B681A6A82
:101C2C007B681B6822F00A021A627B681A687B6860
:101C3C001B68126A1A62454B1B68454AA2FB0323B8
:101C4C009B091846FFF7DEFD424B1B78DBB29AB2BC
:101C5C00414B1B8813449AB23F4B1A803B4B1B6879
:101C6C001A4607F10C033D49184604F09DF807F19C
:101C7C000C031846FEF764FA03469AB207F10C01FE
:101C8C004FF0FF332D4803F0F2FE7B681B68294AA6
:101C9C00934240F0BA807B681B7F022B40F0B580EA
:101CAC004FF0FF3309222E49244803F0E0FE2D4B60
:101CBC001B78DBB2002B1AD10421786803F090FB5F
:101CCC000346294A1360274B01221A707B681B6854
:101CDC001A6A7B681B6822F0A0021A627B681B6878
:101CEC001A6A7B681B6842F020021A628DE01D4B59
:101CFC001B78DBB2012B40F088800421786803F05C
:101D0C006FFB0346194A13607B681B6800225A62FA
:101D1C00164B1A68144B1B689A422BD9134B1A6832
:101D2C00114B1B68D31A124A136033E09402002043
:101D3C004C02002000040040746900081C030020C1
:101D4C00D0000020C4000020C8000020CC000020DF
:101D5C00D34D621011000020FA00002080690008A9
:101D6C009C690008E0000020D4000020D80000206E
:101D7C00DC000020304B1A68304B1B689A4209D9A2
:101D8C002E4B1A682C4B1B68D31A03F57F43FF3379
:101D9C002B4A13602B4B00221A707B681B681A6A43
:101DAC007B681B6822F0A0021A627B681A687B6849
:101DBC001B68126A1A62224B1B68234AA2FB03237C
:101DCC009B091846FFF792FC204B1B78DBB29AB2AA
:101DDC001F4B1B8813449AB21D4B1A80184B1B685F
:101DEC001A4607F10C031B49184603F0DDFF07F1F7
:101DFC000C031846FEF7A4F903469AB207F10C013E
:101E0C004FF0FF33144803F032FE144B1B68DA68B2
:101E1C00124B1B6822F00402DA60104B1B68DA6864
:101E2C000E4B1B6842F00402DA600D4802F09AFE79
:101E3C0000BF3037BD4680BDD4000020D800002044
:101E4C00DC000020E0000020D34D621012000020C6
:101E5C00F8000020A86900081C03002004020020E0
:101E6C009402002080B400AF00BFBD4680BC704718
:101E7C0080B582B000AF0346FB7100F085F800F02E
:101E8C0022F800F077F807210B2000F049F8FB79D5
:101E9C00184600F006F800F01FF800BF0837BD46E2
:101EAC0080BD80B582B000AF0346FB71FB790F2B70
:101EBC0005D8FB7919460A2000F032F800E000BF83
:101ECC000837BD4680BD80B500AF00210F2000F063
:101EDC0027F800BF80BD000080B582B000AF0023A2
:101EEC00FB710E4B1B78FF2B01D10F23FB710023D1
:101EFC003B600BE03B68DBB20133DBB2FA79114695
:101F0C00184600F00DF83B6801333B603B68072B2B
:101F1C00F0DD00BF00BF0837BD4680BD01010020C9
:101F2C0080B582B000AF03460A46FB711346BB7105
:101F3C0000224FF480410D4801F0C9F9F91D4FF012
:101F4C00FF3301220A4802F0DBFBB91D4FF0FF33CF
:101F5C000122074802F0D4FB01224FF480410348D0
:101F6C0001F0B5F900BF0837BD4680BD000C01403B
:101F7C006401002080B500AFFFF7A5FF01210C2004
:101F8C00FFF7CEFF00BF80BD80B500AFFFF79BFF12
:101F9C0000210C20FFF7C4FF00BF80BD80B500AF4F
:101FAC00054BFF221A70044B1B7819460920FFF7CA
:101FBC00B7FF00BF80BD00BF0101002080B582B01B
:101FCC0000AF0346FB710B46BB7113467B71FFF7E9
:101FDC007AFFFB79082B44D87B79002B20D0234B3C
:101FEC001B78002B0ED1BB79184600F0BBF80346CA
:101FFC00DBB263F07F03DAB2FB7911461846FFF7C8
:10200C008FFF2FE0194B1B78FF2B2BD1BB7963F083
:10201C007F03DAB2FB7911461846FFF781FF21E006
:10202C00124B1B78002B0ED1BB79184600F09AF896
:10203C000346DBB203F07F03DAB2FB791146184694
:10204C00FFF76EFF0EE0094B1B78FF2B0AD1BB7913
:10205C0003F07F03DAB2FB7911461846FFF760FFF5
:10206C0000E000BF0837BD4680BD00BF0101002065
:10207C0080B584B000AF03463960FB71FFF723FFD6
:10208C00FF210920FFF74CFF3B68002B0DDAFB7991
:10209C00002B07D0FB790A211846FFF741FFFB798B
:1020AC00013BFB713B685B423B600123FB6005E03D
:1020BC00FA6813469B0013445B00FB603A68FB68AC
:1020CC0092FBF3F3092BF3DCFB79002B0CD03A6871
:1020DC00FB6892FBF3F3DAB2FB7911461846FFF773
:1020EC001FFFFB79013BFB71FB681C4A82FB03124F
:1020FC009210DB17D31AFB6022E0FB79002B17D070
:10210C00FA6813469B0013445B001A463B6893FB2A
:10211C00F2F102FB01F29A1AFB6892FBF3F3DAB2CA
:10212C00FB7911461846FFF7FBFEFB79013BFB716F
:10213C00FB680A4A82FB03129210DB17D31AFB606E
:10214C00FB68002BD9DC064B1B7819460920FFF7DE
:10215C00E7FEFB7918461037BD4680BD676666669C
:10216C000101002080B483B000AF0346FB71FB7902
:10217C00034AD35C9BB218460C37BD4680BC7047F3
:10218C001800002080B582B000AF3B1D00210A462C
:10219C001A800A469A7000233B601D4B1D4A1A6038
:1021AC001B4B4FF0FF325A60194B4FF480729A6000
:1021BC00174801F05DFE0346002B01D0FFF752FEDD
:1021CC0000233B7100237B710023BB713B1D01225B
:1021DC0019460F4801F0E2FE0346002B01D0FFF731
:1021EC0041FE01233B7001237B700123BB70002354
:1021FC00FB703B4601221946054801F067FF034678
:10220C00002B01D0FFF72EFE00BF0837BD4680BD66
:10221C00500100200028004080B584B000AF7860E9
:10222C007B681B680B4A934210D101F081F80A4B72
:10223C00DB69094A43F00063D361074BDB6903F0A8
:10224C000063FB60FB68054B01221A6000BF10376E
:10225C00BD4680BD00280040001002403C044242B4
:10226C0080B500AF174B184A1A60164B4FF48272A8
:10227C005A60144B00229A60124B0022DA60114B08
:10228C0000221A610F4B00225A610E4B4FF4007260
:10229C009A610C4B0822DA610A4B00221A62094B34
:1022AC0000225A62074B00229A62064B0A22DA621B
:1022BC00044802F0A1F90346002B01D0FFF7D2FD30
:1022CC0000BF80BD640100200038004080B588B09C
:1022DC0000AF786007F1100300221A605A609A6010
:1022EC00DA607B681B68164A934224D1154BDB6974
:1022FC00144A43F48043D361124BDB6903F48043EB
:10230C00FB60FB680F4B9B690E4A43F0080393611B
:10231C000C4B9B6903F00803BB60BB684FF4204374
:10232C003B6102237B610323FB6107F11003194618
:10233C00054800F031FE00BF2037BD4680BD00BF10
:10234C000038004000100240000C014080B584B001
:10235C0000AF274B9B69264A43F001039361244B42
:10236C009B6903F00103BB60BB68214BDB69204A0E
:10237C0043F08053D3611E4BDB6903F080537B60C9
:10238C007B68002201216FF00B0000F0B2FD0022EF
:10239C0001216FF00A0000F0ACFD002201216FF06A
:1023AC00090000F0A6FD002201216FF0040000F0EE
:1023BC00A0FD002201216FF0030000F09AFD002225
:1023CC0001216FF0010000F094FD0A4B5B68FB608B
:1023DC00FB6823F0E063FB60FB6843F00073FB6079
:1023EC00044AFB68536000BF1037BD4680BD00BF78
:1023FC00001002400000014080B400AF00BFBD4699
:10240C0080BC704780B400AFFEE780B400AFFEE73D
:10241C0080B400AFFEE780B400AFFEE780B400AF3D
:10242C0000BFBD4680BC704780B400AF00BFBD4646
:10243C0080BC704780B400AF00BFBD4680BC704705
:10244C0080B500AF00F0E4FB00BF80BD80B500AFED
:10245C00042000F055FF00BF80BD80B500AF082000
:10246C0000F04EFF00BF80BD80B500AF102000F023
:10247C0047FF00BF80BD80B500AF202000F040FFBB
:10248C00402000F03DFF802000F03AFF00BF80BDEF
:10249C0080B500AF024802F043FD00BF80BD00BF15
:1024AC004C02002080B500AF024802F039FD00BF9D
:1024BC0080BD00BF9402002080B500AF024802F03E
:1024CC002FFD00BF80BD00BF0402002080B500AF0F
:1024DC00024802F025FD00BF80BD00BFBC010020FA
:1024EC0080B586B000AF7860144A154BD31A7B6167
:1024FC007B693B61134B1B68002B02D1114B124AB9
:10250C001A60104B1A687B6813443A699A4207D2D6
:10251C0003F018FC03460C221A604FF0FF3309E05D
:10252C00084B1B68FB60074B1A687B681344054A11
:10253C001360FB6818461837BD4680BD005000205C
:10254C0000040000040100207003002080B400AFE0
:10255C0000BFBD4680BC704780B586B000AF07F1A8
:10256C00080300221A605A609A60DA603B46002227
:10257C001A605A601F4B204A1A601E4B40F2BB2255
:10258C005A601C4B00229A601A4B4FF6FF12DA600D
:10259C00184B00221A61174B00225A61154B00226E
:1025AC009A61144802F08EFA0346002B01D0FFF713
:1025BC0059FC4FF48053BB6007F1080319460D48D2
:1025CC0002F04AFE0346002B01D0FFF74BFC002320
:1025DC003B6000237B603B461946064803F08AF9B2
:1025EC000346002B01D0FFF73DFC00BF1837BD465A
:1025FC0080BD00BF4C020020002C014080B586B08D
:10260C0000AF07F1080300221A605A609A60DA6082
:10261C003B4600221A605A601D4B4FF080421A60F4
:10262C001B4B63225A601A4B00229A60184B4FF6D0
:10263C00FF12DA60164B00221A61154B00229A61C8
:10264C00134802F03FFA0346002B01D0FFF70AFCB7
:10265C004FF48053BB6007F1080319460C4802F095
:10266C00FBFD0346002B01D0FFF7FCFB00233B6076
:10267C0000237B603B461946054803F03BF90346B3
:10268C00002B01D0FFF7EEFB00BF1837BD4680BD15
:10269C009402002080B58AB000AF07F11803002225
:1026AC001A605A609A60DA6007F1100300221A600F
:1026BC005A603B4600221A605A609A60DA60314BCD
:1026CC00314A1A602F4B47225A602E4B00229A60D7
:1026DC002C4B4FF6FE72DA602A4B00221A61294B02
:1026EC0000229A61274802F0EDF90346002B01D035
:1026FC00FFF7B8FB4FF48053BB6107F11803194681
:10270C00204802F0A9FD0346002B01D0FFF7AAFBDD
:10271C001C4802F0A7FA0346002B01D0FFF7A2FBDE
:10272C0000233B6100237B6107F110031946154818
:10273C0003F0E0F80346002B01D0FFF793FB0023D6
:10274C003B6001237B600023BB600523FB603B46A1
:10275C00002219460B4802F0EBFC0346002B01D07B
:10276C00FFF780FB3B4604221946064802F0E0FCCA
:10277C000346002B01D0FFF775FB00BF2837BD4681
:10278C0080BD00BF040200200004004080B586B06C
:10279C0000AF07F1080300221A605A609A60DA60F1
:1027AC003B4600221A605A601D4B1E4A1A601C4B95
:1027BC0040F2DB525A601A4B00229A60184B4FF6CB
:1027CC00FF12DA60164B00221A61154B00229A6137
:1027DC00134802F077F90346002B01D0FFF742FBB8
:1027EC004FF48053BB6007F1080319460C4802F004
:1027FC0033FD0346002B01D0FFF734FB00233B6075
:10280C0000237B603B461946054803F073F80346EA
:10281C00002B01D0FFF726FB00BF1837BD4680BD4B
:10282C00BC0100200008004080B58CB000AF78607F
:10283C0007F11C0300221A605A609A60DA607B6808
:10284C001B68494A934214D1484B9B69474A43F44D
:10285C0000639361454B9B6903F40063BB61BB69E7
:10286C0000220321192000F044FB192000F05DFB2D
:10287C0076E07B681B68B3F1804F14D13B4BDB696E
:10288C003A4A43F00103D361384BDB6903F001038F
:10289C007B617B69002204211C2000F02AFB1C2098
:1028AC0000F043FB5CE07B681B68314A93423ED1ED
:1028BC002E4BDB692D4A43F00203D3612B4BDB69B2
:1028CC0003F002033B613B69284B9B69274A43F0A9
:1028DC0008039361254B9B6903F00803FB60FB68BD
:1028EC003023FB6100233B6202237B6207F11C0354
:1028FC001946204800F050FB1F4B5B68FB62FB6ADB
:10290C0023F44063FB62FB6A43F0E063FB62FB6A07
:10291C0043F40063FB62184AFB6A536000220121F6
:10292C001D2000F0E6FA1D2000F0FFFA18E07B688D
:10293C001B68124A934213D10C4BDB690B4A43F0D0
:10294C000403D361094BDB6903F00403BB60BB6870
:10295C00002203211E2000F0CCFA1E2000F0E5FA24
:10296C0000BF3037BD4680BD002C01400010024036
:10297C0000040040000C0140000001400008004031
:10298C0080B500AF114B124A1A60104B4FF4E13274
:10299C005A600E4B00229A600C4B0022DA600B4BF3
:1029AC0000221A61094B0C225A61084B00229A61D1
:1029BC00064B0022DA61054803F00CF80346002BA5
:1029CC0001D0FFF74FFA00BF80BD00BF1C030020F1
:1029DC000038014080B500AF114B124A1A60104B01
:1029EC004FF4E1325A600E4B00229A600C4B0022DD
:1029FC00DA600B4B00221A61094B0C225A61084B0E
:102A0C0000229A61064B0022DA61054802F0E2FFCF
:102A1C000346002B01D0FFF725FA00BF80BD00BF95
:102A2C00DC0200200048004080B58AB000AF78601E
:102A3C0007F1180300221A605A609A60DA607B680A
:102A4C001B68384A934232D1374B9B69364A43F460
:102A5C0080439361344B9B6903F480437B617B69B6
:102A6C00314B9B69304A43F0040393612E4B9B69B5
:102A7C0003F004033B613B694FF40073BB61022319
:102A8C00FB6103237B6207F118031946274800F00A
:102A9C0083FA4FF48063BB610023FB6100233B622C
:102AAC0007F118031946214800F076FA36E07B68E6
:102ABC001B681F4A934231D11B4BDB691A4A43F402
:102ACC008023D361184BDB6903F48023FB60FB6824
:102ADC00154B9B69144A43F008039361124B9B6995
:102AEC0003F00803BB60BB684FF48063BB61022337
:102AFC00FB6103237B6207F1180319460D4800F0B4
:102B0C004BFA4FF40063BB610023FB6100233B6273
:102B1C0007F118031946074800F03EFA00BF2837A2
:102B2C00BD4680BD00380140001002400008014045
:102B3C0000480040000C0140002103E00B4B5B58A7
:102B4C00435004310A480B4B42189A42F6D30A4AB6
:102B5C0002E0002342F8043B084B9A42F9D3FFF7FA
:102B6C00F5FC03F0F5F8FDF7C3FB7047386A000875
:102B7C0000000020A0000020A00000207003002016
:102B8C00FEE7000080B500AF084B1B68074A43F016
:102B9C0010031360032000F0A1F9012000F008F8E5
:102BAC00FFF7D4FB0023184680BD00BF0020024075
:102BBC0080B582B000AF7860124B1A68124B1B784C
:102BCC0019464FF47A73B3FBF1F3B2FBF3F31846E7
:102BDC0000F0C7F90346002B01D001230EE07B68FF
:102BEC000F2B0AD8002279684FF0FF3000F081F9E2
:102BFC00064A7B681360002300E00123184608375F
:102C0C00BD4680BD3000002038000020340000207C
:102C1C0080B400AF054B1B781A46054B1B68134458
:102C2C00034A136000BFBD4680BC704738000020CB
:102C3C005C03002080B400AF024B1B681846BD46F5
:102C4C0080BC70475C03002080B584B000AF786016
:102C5C00FFF7F0FFB8607B68FB60FB68B3F1FF3FE8
:102C6C0005D00A4B1B781A46FB681344FB6000BF67
:102C7C00FFF7E0FF0246BB68D31AFA689A42F7D80E
:102C8C0000BF00BF1037BD4680BD00BF380000201C
:102C9C0080B400AF034B1B681B0C1846BD4680BCB0
:102CAC00704700BF002004E080B400AF034B1B68EA
:102CBC00C3F30B031846BD4680BC7047002004E0EC
:102CCC0080B485B000AF78607B6803F00703FB60CD
:102CDC000C4BDB68BB60BA684FF6FF031340BB605C
:102CEC00FB681A02BB68134343F0BF6343F4003321
:102CFC00BB60044ABB68D36000BF1437BD4680BCC0
:102D0C00704700BF00ED00E080B400AF044BDB68FF
:102D1C001B0A03F007031846BD4680BC704700BF72
:102D2C0000ED00E080B483B000AF0346FB7197F96F
:102D3C000730002B0BDBFB7903F01F02064997F9D8
:102D4C0007305B09012000FA02F241F8232000BF92
:102D5C000C37BD4680BC704700E100E080B483B006
:102D6C0000AF0346FB7197F90730002B12DBFB79A0
:102D7C0003F01F020A4997F907305B09012000FA9A
:102D8C0002F2203341F82320BFF34F8F00BFBFF373
:102D9C006F8F00BF00BF0C37BD4680BC704700BFB3
:102DAC0000E100E080B483B000AF0346FB7197F9FB
:102DBC000730002B0CDBFB7903F01F02074997F956
:102DCC0007305B09012000FA02F2603341F823203E
:102DDC0000BF0C37BD4680BC704700BF00E100E06F
:102DEC0080B483B000AF03463960FB7197F90730AC
:102DFC00002B0ADB3B68DAB20C4997F90730120159
:102E0C00D2B20B4483F800230AE03B68DAB20849DB
:102E1C00FB7903F00F03043B1201D2B20B441A7678
:102E2C0000BF0C37BD4680BC704700BF00E100E01E
:102E3C0000ED00E080B489B000AFF860B9607A6052
:102E4C00FB6803F00703FB61FB69C3F10703042B69
:102E5C0028BF0423BB61FB690433062B02D9FB6931
:102E6C00033B00E000237B614FF0FF32BB6902FAA9
:102E7C0003F3DA43BB681A407B699A404FF0FF3189
:102E8C007B6901FA03F3D9437B680B401343184663
:102E9C002437BD4680BC704780B582B000AF7860E7
:102EAC007B68013BB3F1807F01D301230FE00A4A19
:102EBC007B68013B53600F214FF0FF30FFF790FF11
:102ECC00054B00229A60044B07221A600023184617
:102EDC000837BD4680BD00BF10E000E080B582B071
:102EEC0000AF78607868FFF7EBFE00BF0837BD468F
:102EFC0080BD80B586B000AF0346B9607A60FB73C5
:102F0C0000237B61FFF700FF78617A68B968786904
:102F1C00FFF790FF024697F90F3011461846FFF75E
:102F2C005FFF00BF1837BD4680BD80B582B000AFD3
:102F3C000346FB7197F907301846FFF7F3FE00BF05
:102F4C000837BD4680BD80B582B000AF0346FB712B
:102F5C0097F907301846FFF701FF00BF0837BD4649
:102F6C0080BD80B582B000AF78607868FFF794FFC1
:102F7C00034618460837BD4680BD80B582B000AF09
:102F8C000346FB7197F907301846FFF70BFF00BF9C
:102F9C000837BD4680BD000080B48BB000AF7860B0
:102FAC00396000237B6200233B6269E101227B6A6A
:102FBC0002FA03F3FB613B681B68FA691340BB61BF
:102FCC00BA69FB699A4240F058813B685B689A4A3F
:102FDC0093425ED0984A934275D8984A934258D0FF
:102FEC00964A93426FD8964A934252D0944A93424F
:102FFC0069D8944A93424CD0924A934263D8924AED
:10300C00934246D0904A93425DD8122B2AD8122B69
:10301C0059D801A252F823F09F30000879300008EB
:10302C008B300008CD300008D3300008D3300008B6
:10303C00D3300008D3300008D3300008D330000858
:10304C00D3300008D3300008D3300008D330000848
:10305C00D3300008D3300008D3300008813000088A
:10306C0095300008794A934213D02CE03B68DB681A
:10307C003B6229E03B68DB6804333B6224E03B683D
:10308C00DB6808333B621FE03B68DB680C333B6258
:10309C001AE03B689B68002B02D104233B6213E0CF
:1030AC003B689B68012B05D108233B627B68FA695E
:1030BC001A6109E008233B627B68FA695A6103E0F4
:1030CC0000233B6200E000BFBB69FF2B01D87B688B
:1030DC0001E07B6804337B61BB69FF2B02D87B6A00
:1030EC009B0002E07B6A083B9B003B617B691A6892
:1030FC000F213B6901FA03F3DB431A40396A3B6940
:10310C0001FA03F31A437B691A603B685B6803F0AE
:10311C008053002B00F0B1804D4B9B694C4A43F01F
:10312C00010393614A4B9B6903F00103BB60BB68CD
:10313C00484A7B6A9B08023352F82330FB607B6A57
:10314C0003F003039B000F2202FA03F3DB43FA683C
:10315C001340FB607B68404A934213D07B683F4A24
:10316C0093420DD07B683E4A934207D07B683D4A20
:10317C00934201D1032306E0042304E0022302E07E
:10318C00012300E000237A6A02F0030292009340CC
:10319C00FA681343FB602F497B6A9B080233FA6879
:1031AC0041F823203B685B6803F48033002B06D086
:1031BC002D4B1A682C49BB6913430B6006E02A4B54
:1031CC001A68BB69DB43284913400B603B685B689A
:1031DC0003F40033002B06D0234B5A682249BB69F9
:1031EC0013434B6006E0204B5A68BB69DB431E4916
:1031FC0013404B603B685B6803F48013002B06D0D4
:10320C00194B9A681849BB6913438B6006E0164B3F
:10321C009A68BB69DB43144913408B603B685B685D
:10322C0003F40013002B21D00F4BDA680E49BB6955
:10323C001343CB6021E000BF0000321000003110BE
:10324C0000002210000021100000121000001110CC
:10325C00001002400000014000080140000C014039
:10326C000010014000140140000401400B4BDA68CF
:10327C00BB69DB4309491340CB607B6A01337B623A
:10328C003B681A687B6A22FA03F3002B7FF48EAE3C
:10329C0000BF00BF2C37BD4680BC70470004014006
:1032AC0080B485B000AF78600B467B807B689A68F1
:1032BC007B881340002B02D00123FB7301E0002319
:1032CC00FB73FB7B18461437BD4680BC704780B43B
:1032DC0083B000AF78600B467B8013467B707B78A5
:1032EC00002B03D07A887B681A6103E07B881A0470
:1032FC007B681A6100BF0C37BD4680BC704700006C
:10330C0080B582B000AF0346FB80084B5A69FB883E
:10331C001340002B06D0054AFB885361FB881846E6
:10332C00FDF760FE00BF0837BD4680BD00040140BC
:10333C0080B400AF034B01221A6000BFBD4680BCB5
:10334C00704700BF20000E4280B586B000AF786099
:10335C007B68002B01D101236CE27B681B6803F0B6
:10336C000103002B00F08780924B5B6803F00C0389
:10337C00042B0CD08F4B5B6803F00C03082B12D181
:10338C008C4B5B6803F48033B3F5803F0BD1894BD6
:10339C001B6803F40033002B6CD07B685B68002B3C
:1033AC0068D1012346E27B685B68B3F5803F06D1A8
:1033BC00804B1B687F4A43F4803313602EE07B689C
:1033CC005B68002B0CD17B4B1B687A4A23F480334F
:1033DC001360784B1B68774A23F4802313601DE03D
:1033EC007B685B68B3F5A02F0CD1724B1B68714ADC
:1033FC0043F4802313606F4B1B686E4A43F4803395
:10340C0013600BE06B4B1B686A4A23F48033136028
:10341C00684B1B68674A23F4802313607B685B68E6
:10342C00002B13D0FFF706FC386108E0FFF702FC15
:10343C0002463B69D31A642B01D90323FAE15D4B95
:10344C001B6803F40033002BF0D014E0FFF7F2FB01
:10345C00386108E0FFF7EEFB02463B69D31A642B98
:10346C0001D90323E6E1534B1B6803F40033002B13
:10347C00F0D100E000BF7B681B6803F00203002B57
:10348C0063D04C4B5B6803F00C03002B0BD0494B07
:10349C005B6803F00C03082B1CD1464B5B6803F4F0
:1034AC008033002B16D1434B1B6803F00203002B17
:1034BC0005D07B681B69012B01D00123BAE13D4B80
:1034CC001B6823F0F8027B685B69DB003949134306
:1034DC000B603AE07B681B69002B20D0364B012235
:1034EC001A60FFF7A7FB386108E0FFF7A3FB024661
:1034FC003B69D31A022B01D903239BE12D4B1B688B
:10350C0003F00203002BF0D02A4B1B6823F0F802C7
:10351C007B685B69DB00274913430B6015E0264B86
:10352C0000221A60FFF786FB386108E0FFF782FB88
:10353C0002463B69D31A022B01D903237AE11D4BB6
:10354C001B6803F00203002BF0D17B681B6803F0AF
:10355C000803002B3AD07B689B69002B19D0174BC2
:10356C0001221A60FFF766FB386108E0FFF762FB87
:10357C0002463B69D31A022B01D903235AE10D4BA6
:10358C005B6A03F00203002BF0D0012000F0D8FAA4
:10359C001CE00A4B00221A60FFF74CFB38610FE06D
:1035AC00FFF748FB02463B69D31A022B08D90323C9
:1035BC0040E100BF00100240000042428004424241
:1035CC009E4B5B6A03F00203002BE9D17B681B68FE
:1035DC0003F00403002B00F0A6800023FB75974B2F
:1035EC00DB6903F08053002B0DD1944BDB69934ABC
:1035FC0043F08053D361914BDB6903F08053BB6084
:10360C00BB680123FB758E4B1B6803F48073002B86
:10361C0018D18B4B1B688A4A43F480731360FFF7F5
:10362C0009FB386108E0FFF705FB02463B69D31A3A
:10363C00642B01D90323FDE0814B1B6803F48073D9
:10364C00002BF0D07B68DB68012B06D17B4B1B6A0F
:10365C007A4A43F0010313622DE07B68DB68002B90
:10366C000CD1764B1B6A754A23F001031362734B22
:10367C001B6A724A23F0040313621CE07B68DB684C
:10368C00052B0CD16D4B1B6A6C4A43F0040313627F
:10369C006A4B1B6A694A43F0010313620BE0674BE8
:1036AC001B6A664A23F001031362644B1B6A634A6C
:1036BC0023F0040313627B68DB68002B15D0FFF743
:1036CC00B9FA38610AE0FFF7B5FA02463B69D31A3A
:1036DC0041F28832934201D90323ABE0574B1B6A6A
:1036EC0003F00203002BEED014E0FFF7A3FA3861CD
:1036FC000AE0FFF79FFA02463B69D31A41F288327F
:10370C00934201D9032395E04C4B1B6A03F002034F
:10371C00002BEED1FB7D012B05D1484BDB69474AD1
:10372C0023F08053D3617B68DB69002B00F0818030
:10373C00424B5B6803F00C03082B61D07B68DB69A0
:10374C00022B46D13F4B00221A60FFF773FA386107
:10375C0008E0FFF76FFA02463B69D31A022B01D936
:10376C00032367E0354B1B6803F00073002BF0D18B
:10377C007B681B6AB3F5803F08D1304B5B6823F440
:10378C0000327B689B682D4913434B602B4B5B6865
:10379C0023F474127B68196A7B685B6A0B432749B4
:1037AC0013434B60274B01221A60FFF743FA386131
:1037BC0008E0FFF73FFA02463B69D31A022B01D906
:1037CC00032337E01D4B1B6803F00073002BF0D074
:1037DC002FE01C4B00221A60FFF72CFA386108E02E
:1037EC00FFF728FA02463B69D31A022B01D90323AF
:1037FC0020E0124B1B6803F00073002BF0D118E093
:10380C007B68DB69012B01D1012313E00B4B5B6857
:10381C00FB60FB6803F480327B681B6A9A4206D11A
:10382C00FB6803F470127B685B6A9A4201D0012337
:10383C0000E0002318461837BD4680BD001002403A
:10384C00007000406000424280B584B000AF7860E8
:10385C0039607B68002B01D10123D0E06A4B1B68D7
:10386C0003F007033A689A4210D9674B1B6823F0A0
:10387C00070265493B6813430B60634B1B6803F0FD
:10388C0007033A689A4201D00123B8E07B681B68B1
:10389C0003F00203002B20D07B681B6803F00403A9
:1038AC00002B05D0594B5B68584A43F4E0635360D6
:1038BC007B681B6803F00803002B05D0534B5B6837
:1038CC00524A43F460535360504B5B6823F0F00250
:1038DC007B689B684D4913434B607B681B6803F006
:1038EC000103002B40D07B685B68012B07D1474B51
:1038FC001B6803F40033002B15D101237FE07B6898
:10390C005B68022B07D1414B1B6803F00073002B43
:10391C0009D1012373E03D4B1B6803F00203002B1C
:10392C0001D101236BE0394B5B6823F003027B6808
:10393C005B68364913434B60FFF77CF9F8600AE08B
:10394C00FFF778F90246FB68D31A41F288329342AA
:10395C0001D9032353E02D4B5B6803F00C027B6809
:10396C005B689B009A42EBD1274B1B6803F0070363
:10397C003A689A4210D2244B1B6823F00702224962
:10398C003B6813430B60204B1B6803F007033A683A
:10399C009A4201D0012332E07B681B6803F00403D8
:1039AC00002B08D0194B5B6823F4E0627B68DB6862
:1039BC00164913434B607B681B6803F00803002B0C
:1039CC0009D0124B5B6823F460527B681B69DB00E7
:1039DC000E4913434B6000F021F802460B4B5B6819
:1039EC001B0903F00F030A49CB5C22FA03F3094AC3
:1039FC001360094B1B681846FFF7DAF800231846CA
:103A0C001037BD4680BD00BF0020024000100240B0
:103A1C00E4690008300000203400002090B48AB023
:103A2C0000AF2A4B3C1D0FCB84E80F0040F2012362
:103A3C003B800023FB610023BB6100237B620023DE
:103A4C007B6100233B62224B5B68FB61FB6903F0EB
:103A5C000C03042B02D0082B03D02DE01D4B3B6232
:103A6C002DE0FB699B0C03F00F0307F128021344B4
:103A7C0013F8243C7B61FB6903F48033002B13D0D7
:103A8C00134B5B685B0C03F0010307F12802134432
:103A9C0013F8283CBB617B690E4A02FB03F2BB693D
:103AAC00B2FBF3F37B6204E07B690B4A02FB03F38A
:103ABC007B627B6A3B6202E0064B3B6200BF3B6A67
:103ACC0018462837BD4690BC704700BFC469000833
:103ADC000010024000127A0000093D0080B400AFD3
:103AEC00024B1B681846BD4680BC70473000002056
:103AFC0080B500AFFFF7F2FF0246054B5B681B0A6F
:103B0C0003F007030349CB5C22FA03F3184680BD8C
:103B1C0000100240F469000880B500AFFFF7DEFF2B
:103B2C000246054B5B68DB0A03F007030349CB5CD9
:103B3C0022FA03F3184680BD00100240F469000815
:103B4C0080B485B000AF78600A4B1B680A4AA2FBB0
:103B5C0003235B0A7A6802FB03F3FB6000BFFB687C
:103B6C005A1EFA60002BF9D100BF00BF1437BD46B6
:103B7C0080BC704730000020D34D621080B586B0F9
:103B8C0000AF786000233B610023FB607B681B68FF
:103B9C0003F00103002B7DD00023FB754F4BDB6939
:103BAC0003F08053002B0DD14C4BDB694B4A43F097
:103BBC008053D361494BDB6903F08053BB60BB6816
:103BCC000123FB75464B1B6803F48073002B18D143
:103BDC00434B1B68424A43F480731360FFF72AF887
:103BEC00386108E0FFF726F802463B69D31A642BCC
:103BFC0001D903236DE03A4B1B6803F48073002B4F
:103C0C00F0D0364B1B6A03F44073FB60FB68002B4F
:103C1C002ED07B685B6803F44073FA689A4227D015
:103C2C002E4B1B6A23F44073FB602E4B01221A604F
:103C3C002C4B00221A60294AFB681362FB6803F0C4
:103C4C000103002B14D0FEF7F5FF38610AE0FEF7F4
:103C5C00F1FF02463B69D31A41F28832934201D9F3
:103C6C00032336E01D4B1B6A03F00203002BEED03E
:103C7C001A4B1B6A23F440727B685B681749134329
:103C8C000B62FB7D012B05D1144BDB69134A23F02E
:103C9C008053D3617B681B6803F00203002B08D0B0
:103CAC000E4B5B6823F440427B689B680B491343C3
:103CBC004B607B681B6803F01003002B08D0074B8C
:103CCC005B6823F480027B68DB68044913434B6018
:103CDC00002318461837BD4680BD00BF00100240B7
:103CEC00007000404004424290B58DB000AF786047
:103CFC005A4B07F10C040FCB84E80F0040F2012360
:103D0C003B8100237B620023FB6200233B62002388
:103D1C00FB610023BB627B68102B0AD07B68102BE5
:103D2C0000F291807B68012B4CD07B68022B7CD0FD
:103D3C0089E04B4B5B68FB61494B1B6803F080735C
:103D4C00002B00F08280FB699B0C03F00F0307F142
:103D5C003002134413F8243C3B62FB6903F48033B8
:103D6C00002B18D03E4B5B685B0C03F0010307F192
:103D7C003002134413F8283C7B62FB6903F4803354
:103D8C00002B0DD0374A7B6AB2FBF3F23B6A02FB85
:103D9C0003F3FB6204E03B6A334A02FB03F3FB626E
:103DAC002F4B5B6803F48003B3F5800F02D1FB6AE1
:103DBC00BB624AE0FB6A5B002C4AA2FB03235B0854
:103DCC00BB6242E0264B1B6AFB61FB6903F4407348
:103DDC00B3F5807F08D1FB6903F00203002B03D0FD
:103DEC004FF40043BB621FE0FB6903F44073B3F56F
:103DFC00007F09D11A4B5B6A03F00203002B03D03E
:103E0C0049F64043BB620FE0FB6903F44073B3F522
:103E1C00407F1CD1124B1B6803F40033002B16D0CF
:103E2C004FF22443BB6212E011E0FFF775FE02462D
:103E3C000B4B5B689B0B03F0030301335B00B2FB82
:103E4C00F3F3BB6204E000BF02E000BF00E000BF80
:103E5C00BB6A18463437BD4690BD00BFD469000814
:103E6C000010024000127A0000093D00ABAAAAAA79
:103E7C0080B584B000AF78600023FB607B68002BBA
:103E8C0001D1012384E07B685B7CDBB2002B05D184
:103E9C007B6800221A747868FEF7BEF97B680222F0
:103EAC005A74786800F0C8F90346002B04D07B687C
:103EBC0004225A7401236BE0786800F081FA0346FF
:103ECC00002B04D07B6804225A74012360E07B68C9
:103EDC001B685A687B681B6822F007025A607B6873
:103EEC009B68002B05D02C4B1B6B2B4A23F001033A
:103EFC001363294BDB6A23F460727B689B68264949
:103F0C001343CB627B685B68B3F1FF3F03D07B68E4
:103F1C005B68FB600EE00120FFF7E6FEF860FB68D3
:103F2C00002B04D17B6804225A74012330E0FB6817
:103F3C00013BFB607B681B689B6823F00F01FB68EF
:103F4C001A0C7B681B680A439A607B681B68DB68E9
:103F5C001B0C1B04FA6891B27A6812680B43D3608D
:103F6C00786800F055FA0346002B04D07B680422D5
:103F7C005A7401230CE07B680022DA737B680122FF
:103F8C005A737B6801229A737B6801225A7400234E
:103F9C0018461037BD4680BD006C004090B587B008
:103FAC0000AFF860B9607A6000237B6100233B614D
:103FBC00FB68002B02D0BB68002B01D1012380E0F1
:103FCC00FB681B7C012B01D102237AE0FB680122E8
:103FDC001A74FB6802225A747B68002B13D1BB68DD
:103FEC001B781A464FF4616303FB02F2BB685B78E3
:103FFC0019460B461B015B1A9B001344BA68927856
:10400C0013447B611EE0BB681B78184600F028FA4D
:10401C0003461A464FF4616303FB02F4BB685B78FA
:10402C00184600F01DFA03461A4613461B019B1A4C
:10403C009B001C44BB689B78184600F011FA0346A1
:10404C0023447B617969F86800F053F90346002B2F
:10405C0007D0FB6804225A74FB6800221A740123EF
:10406C002FE0FB681B685A68FB681B6822F005028E
:10407C005A60F86800F064F938613B69B3F1FF3FAE
:10408C0018D03A697B699A4214D23B6903F5A8337C
:10409C0003F5C0733B613969F86800F06AF90346AF
:1040AC00002B07D0FB6804225A74FB6800221A7498
:1040BC00012306E0FB6801225A74FB6800221A7483
:1040CC00002318461C37BD4690BD000080B588B053
:1040DC0000AFF860B9607A600023FB610023BB611C
:1040EC0000237B61FB68002B02D0BB68002B01D145
:1040FC00012397E0FB681B7C012B01D1022391E08B
:10410C00FB6801221A74FB6802225A747B68002B2C
:10411C000CD1BB68DA78FB68DA73BB685A78FB6839
:10412C005A73BB689A78FB689A731AE0BB68DB78A1
:10413C00184600F095F903461A46FB68DA73BB681B
:10414C005B78184600F08CF903461A46FB685A73E4
:10415C00BB689B78184600F083F903461A46FB6847
:10416C009A73FB68DB7B1846FB68597BFB689B7B6F
:10417C001A4600F093F903461A46FB681A73FB685B
:10418C001A7BBB681A70F86800F083F8F861FB6959
:10419C00264AA2FB0323DB0A7B617B69182B3AD9E5
:1041AC007B69234AA2FB03231B09224A02FB03F36C
:1041BC00FA69D31AFB61F969F86800F09AF80346BA
:1041CC00002B07D0FB6804225A74FB6800221A7477
:1041DC00012327E0F86800F0B3F8B861BB69B3F1CC
:1041EC00FF3F18D0BA69FB699A4214D2BB6903F538
:1041FC00A83303F5C073BB61B969F86800F0B9F86E
:10420C000346002B07D0FB6804225A74FB6800227B
:10421C001A74012306E0FB6801225A74FB68002221
:10422C001A74002318462037BD4680BDC5B3A29131
:10423C00ABAAAAAA8051010080B584B000AF786007
:10424C000023FB607B68002B01D101231DE07B6800
:10425C001B685A687B681B6822F008025A60FEF7DC
:10426C00E9FCF86009E0FEF7E5FC0246FB68D31AAE
:10427C00B3F57A7F01D9032307E07B681B685B6881
:10428C0003F00803002BEED0002318461037BD4670
:10429C0080BD80B487B000AF786000237B820023A0
:1042AC003B820023FB8100237B617B681B689B693D
:1042BC007B827B681B68DB69FB817B681B689B6965
:1042CC003B827A8A3B8A9A4208D03B8A1A047B68E2
:1042DC001B68DB699BB213437B6104E07B8A1A0485
:1042EC00FB8913437B617B6918461C37BD4680BC38
:1042FC00704780B584B000AF786039600023FB73E1
:10430C00786800F05DF80346002B02D00123FB73A4
:10431C0011E07B681B683A68120C9A617B681B6819
:10432C003A6892B2DA61786800F072F80346002BB2
:10433C0001D00123FB73FB7B18461037BD4680BDB3
:10434C0080B485B000AF78600023FB810023BB8173
:10435C007B681B681B6AFB817B681B685B6ABB8183
:10436C00FB891A04BB89134318461437BD4680BC1D
:10437C00704780B584B000AF786039600023FB7360
:10438C00786800F01DF80346002B02D00123FB7364
:10439C0011E07B681B683A68120C1A627B681B6818
:1043AC003A6892B25A62786800F032F80346002BF1
:1043BC0001D00123FB73FB7B18461037BD4680BD33
:1043CC0080B584B000AF78600023FB60FEF732FC50
:1043DC00F86009E0FEF72EFC0246FB68D31AB3F531
:1043EC007A7F01D903230FE07B681B685B6803F0BD
:1043FC002003002BEED07B681B685A687B681B6817
:10440C0042F010025A60002318461037BD4680BD9A
:10441C0080B584B000AF78600023FB607B681B68BC
:10442C005A687B681B6822F010025A60FEF702FC87
:10443C00F86009E0FEF7FEFB0246FB68D31AB3F501
:10444C007A7F01D9032307E07B681B685B6803F064
:10445C002003002BEED0002318461037BD4680BD3C
:10446C0080B485B000AF0346FB710023FB60FB7981
:10447C001B09DBB21A4613469B0013445B00FB601E
:10448C00FB7903F00F03DAB2FB68DBB21344DBB247
:10449C0018461437BD4680BC7047000080B485B008
:1044AC0000AF78600B46FB701346BB700023BB60FB
:1044BC000023FB607B6803F5FA63BB60FB78022B7F
:1044CC002DD8FA7813465B001344DB009B1A2C4A58
:1044DC00A2FB03235A08BB781A44BB681A44BB6876
:1044EC00013B9B081A44BB68013B2649A1FB031303
:1044FC005B09D21ABB68013B2249A1FB0313DB0900
:10450C0013441A1D204BA3FB0213D11A49080B4468
:10451C0099080B46DB005B1AD31AFB6029E0FA788A
:10452C0013465B001344DB009B1A154AA2FB0323C2
:10453C005A08BB781A44BB681A44BB689B081A44D7
:10454C00BB681049A1FB03135B09D21ABB680D4968
:10455C00A1FB0313DB0913449A1C0B4BA3FB0213A3
:10456C00D11A49080B4499080B46DB005B1AD31A85
:10457C00FB60FB68DBB218461437BD4680BC704745
:10458C00398EE3381F85EB512549922480B487B0CE
:10459C0000AFF860B9607A6000237B61074B7B61E8
:1045AC00BB689B007A6913447B617B697A6892B221
:1045BC001A6000BF1C37BD4680BC7047006C0040C1
:1045CC0080B485B000AF786039600023FB600023B5
:1045DC00BB60084BFB603B689B00FA681344FB60B4
:1045EC00FB681B689BB2BB60BB6818461437BD46A2
:1045FC0080BC7047006C004080B582B000AF786022
:10460C007B68002B01D1012376E07B685B6A002B71
:10461C0008D17B685B68B3F5827F09D07B68002288
:10462C00DA6105E07B6800221A617B6800225A611E
:10463C007B6800229A627B6893F85130DBB2002BC6
:10464C0006D17B68002283F850207868FDF73EFE87
:10465C007B68022283F851207B681B681A687B6890
:10466C001B6822F040021A607B685B6803F482725C
:10467C007B689B6803F404431A437B68DB6803F490
:10468C0000631A437B681B6903F002031A437B68BF
:10469C005B6903F001031A437B689B6903F40073A5
:1046AC001A437B68DB6903F038031A437B681B6A87
:1046BC0003F0800342EA03017B689B6A03F4005217
:1046CC007B681B680A431A607B689B691A0C7B68C1
:1046DC001B6802F004025A607B681B68DA697B680D
:1046EC001B6822F40062DA617B6800225A657B68E1
:1046FC00012283F85120002318460837BD4680BD9F
:10470C0080B588B000AFF860B9603B601346FB80A1
:10471C000023FB77FB6893F85030012B01D1022367
:10472C0026E1FB68012283F85020FEF783FAB8617A
:10473C00FB88FB82FB6893F85130DBB2012B02D073
:10474C000223FB770BE1BB68002B02D0FB88002B0C
:10475C0002D10123FB7702E1FB68032283F851208D
:10476C00FB6800225A65FB68BA681A63FB68FA8812
:10477C009A86FB68FA88DA86FB6800229A63FB68E3
:10478C0000229A87FB680022DA87FB6800225A64B1
:10479C00FB6800221A64FB689B68B3F5004F0FD1CD
:1047AC00FB681B681A68FB681B6822F040021A60E1
:1047BC00FB681B681A68FB681B6842F480421A602D
:1047CC00FB681B681B6803F04003402B07D0FB6899
:1047DC001B681A68FB681B6842F040021A60FB6891
:1047EC00DB68B3F5006F4BD1FB685B68002B02D024
:1047FC00FB8A012B3ED1FB681B6B1A88FB681B687C
:10480C00DA60FB681B6B9A1CFB681A63FB68DB8E17
:10481C009BB2013B9AB2FB68DA862BE0FB681B6803
:10482C009B6803F00203022B12D1FB681B6B1A88E6
:10483C00FB681B68DA60FB681B6B9A1CFB681A63CD
:10484C00FB68DB8E9BB2013B9AB2FB68DA8611E007
:10485C00FEF7F0F90246BB69D31A3A689A4203D8BC
:10486C003B68B3F1FF3F02D13B68002B02D103231D
:10487C00FB7774E0FB68DB8E9BB2002BCED14CE057
:10488C00FB685B68002B02D0FB8A012B40D1FB68D4
:10489C001A6BFB681B680C3312781A70FB681B6B65
:1048AC005A1CFB681A63FB68DB8E9BB2013B9AB205
:1048BC00FB68DA862CE0FB681B689B6803F002033C
:1048CC00022B13D1FB681A6BFB681B680C33127834
:1048DC001A70FB681B6B5A1CFB681A63FB68DB8E37
:1048EC009BB2013B9AB2FB68DA8611E0FEF7A2F9A3
:1048FC000246BB69D31A3A689A4203D83B68B3F1B3
:10490C00FF3F02D13B68002B02D10323FB7726E04B
:10491C00FB68DB8E9BB2002BCDD1BA693968F86885
:10492C0000F0B2F80346002B02D0FB6820225A6537
:10493C00FB689B68002B0AD100233B61FB681B685A
:10494C00DB683B61FB681B689B683B613B69FB68F0
:10495C005B6D002B02D00123FB7700E000BFFB68EE
:10496C00012283F85120FB68002283F85020FB7F42
:10497C0018462037BD4680BD80B588B000AFF860C2
:10498C00B9603B601346FB71FEF754F90246BB6AF3
:10499C009B1A3A681344FB61FEF74CF9B861394B2A
:1049AC001B685B011B0DFA6902FB03F37B6154E08E
:1049BC003B68B3F1FF3F50D0FEF73CF90246BB69B0
:1049CC00D31AFA699A4202D9FB69002B3DD1FB68D4
:1049DC001B685A68FB681B6822F0E0025A60FB688F
:1049EC005B68B3F5827F11D1FB689B68B3F5004F10
:1049FC0004D0FB689B68B3F5806F07D1FB681B681C
:104A0C001A68FB681B6822F040021A60FB689B6AFC
:104A1C00B3F5005F0FD1FB681B681A68FB681B6855
:104A2C0022F400521A60FB681B681A68FB681B684A
:104A3C0042F400521A60FB68012283F85120FB6893
:104A4C00002283F85020032317E07B69002B01D14F
:104A5C000023FB617B69013B7B61FB681B689A68E7
:104A6C00BB681340BA689A420CBF01230023DBB227
:104A7C001A46FB799A429BD1002318462037BD4633
:104A8C0080BD00BF3000002080B586B002AFF8605A
:104A9C00B9607A607B680093BB6800228021F8685B
:104AAC00FFF76AFF0346002B07D0FB685B6D43F0F2
:104ABC002002FB685A65032300E0002318461037D8
:104ACC00BD4680BD80B582B000AF78607B68002B9E
:104ADC0001D1012341E07B6893F83D30DBB2002B20
:104AEC0006D17B68002283F83C207868FDF79CFE99
:104AFC007B68022283F83D207B681A687B6804334C
:104B0C001946104600F0CCFC7B68012283F8462045
:104B1C007B68012283F83E207B68012283F83F20CA
:104B2C007B68012283F840207B68012283F84120B6
:104B3C007B68012283F842207B68012283F84320A2
:104B4C007B68012283F844207B68012283F845208E
:104B5C007B68012283F83D20002318460837BD46A8
:104B6C0080BD000080B485B000AF78607B6893F89E
:104B7C003D30DBB2012B01D001233AE07B680222ED
:104B8C0083F83D207B681B68DA687B681B6842F001
:104B9C000102DA607B681B68184A93420ED07B686E
:104BAC001B68B3F1804F09D07B681B68144A934291
:104BBC0004D07B681B68134A934211D17B681B6835
:104BCC009B6803F00703FB60FB68062B10D07B6827
:104BDC001B681A687B681B6842F001021A6007E0C8
:104BEC007B681B681A687B681B6842F001021A60BC
:104BFC00002318461437BD4680BC7047002C01407A
:104C0C00000400400008004080B483B000AF78601E
:104C1C007B681B68DA687B681B6822F00102DA602B
:104C2C007B681B681A6A41F211131340002B0FD1D9
:104C3C007B681B681A6A40F244431340002B07D16F
:104C4C007B681B681A687B681B6822F001021A607B
:104C5C007B68012283F83D20002318460C37BD46A3
:104C6C0080BC704780B582B000AF78607B68002B49
:104C7C0001D1012341E07B6893F83D30DBB2002B7E
:104C8C0006D17B68002283F83C20786800F039F864
:104C9C007B68022283F83D207B681A687B680433AA
:104CAC001946104600F0FCFB7B68012283F8462075
:104CBC007B68012283F83E207B68012283F83F2029
:104CCC007B68012283F840207B68012283F8412015
:104CDC007B68012283F842207B68012283F8432001
:104CEC007B68012283F844207B68012283F84520ED
:104CFC007B68012283F83D20002318460837BD4607
:104D0C0080BD80B483B000AF786000BF0C37BD4667
:104D1C0080BC704780B584B000AF786039603B6868
:104D2C00002B04D17B6893F83E30DBB213E03B6878
:104D3C00042B04D17B6893F83F30DBB20BE03B686B
:104D4C00082B04D17B6893F84030DBB203E07B681E
:104D5C0093F84130DBB2FB733B68002B04D17B68CA
:104D6C0093F84230DBB213E03B68042B04D17B6830
:104D7C0093F84330DBB20BE03B68082B04D17B6823
:104D8C0093F84430DBB203E07B6893F84530DBB238
:104D9C00BB73FB7B012B02D1BB7B012B01D001230D
:104DAC00B3E03B68002B04D17B68022283F83E20E1
:104DBC0013E03B68042B04D17B68022283F83F206C
:104DCC000BE03B68082B04D17B68022283F840205F
:104DDC0003E07B68022283F841203B68002B04D15E
:104DEC007B68022283F8422013E03B68042B04D139
:104DFC007B68022283F843200BE03B68082B04D12C
:104E0C007B68022283F8442003E07B68022283F84B
:104E1C0045203B680C2B41D801A252F823F000BF6F
:104E2C00614E0008A94E0008A94E0008A94E0008C2
:104E3C00734E0008A94E0008A94E0008A94E0008A0
:104E4C00854E0008A94E0008A94E0008A94E00087E
:104E5C00974E00087B681B68DA687B681B6842F019
:104E6C000202DA601BE07B681B68DA687B681B68EF
:104E7C0042F00402DA6012E07B681B68DA687B6837
:104E8C001B6842F00802DA6009E07B681B68DA688C
:104E9C007B681B6842F01002DA6000E000BF7B68A0
:104EAC001B6801223968184600F0FFFC7B681B6800
:104EBC00184A93420ED07B681B68B3F1804F09D01F
:104ECC007B681B68144A934204D07B681B68134AA6
:104EDC00934211D17B681B689B6803F00703BB608E
:104EEC00BB68062B10D07B681B681A687B681B6834
:104EFC0042F001021A6007E07B681B681A687B6845
:104F0C001B6842F001021A60002318461037BD4698
:104F1C0080BD00BF002C0140000400400008004090
:104F2C0080B582B000AF78607B681B681B6903F0AA
:104F3C000203022B22D17B681B68DB6803F002039F
:104F4C00022B1BD17B681B686FF002021A617B6815
:104F5C0001221A777B681B689B6903F00303002B03
:104F6C0003D07868FCF7DAFD05E0786800F07CFA8D
:104F7C00786800F082FA7B6800221A777B681B68DD
:104F8C001B6903F00403042B22D17B681B68DB68CC
:104F9C0003F00403042B1BD17B681B686FF0040225
:104FAC001A617B6802221A777B681B689B6903F481
:104FBC004073002B03D07868FCF7B0FD05E07868EF
:104FCC0000F052FA786800F058FA7B6800221A77E1
:104FDC007B681B681B6903F00803082B22D17B68D4
:104FEC001B68DB6803F00803082B1BD17B681B686C
:104FFC006FF008021A617B6804221A777B681B68C1
:10500C00DB6903F00303002B03D07868FCF786FD03
:10501C0005E0786800F028FA786800F02EFA7B68D2
:10502C0000221A777B681B681B6903F01003102B96
:10503C0022D17B681B68DB6803F01003102B1BD19B
:10504C007B681B686FF010021A617B6808221A7764
:10505C007B681B68DB6903F44073002B03D0786812
:10506C00FCF75CFD05E0786800F0FEF9786800F06C
:10507C0004FA7B6800221A777B681B681B6903F0B3
:10508C000103012B0ED17B681B68DB6803F0010365
:10509C00012B07D17B681B686FF001021A617868DD
:1050AC00FBF778FD7B681B681B6903F08003802B82
:1050BC000ED17B681B68DB6803F08003802B07D163
:1050CC007B681B686FF080021A61786800F079FCCD
:1050DC007B681B681B6903F04003402B0ED17B6877
:1050EC001B68DB6803F04003402B07D17B681B680F
:1050FC006FF040021A61786800F0C8F97B681B6891
:10510C001B6903F02003202B0ED17B681B68DB6826
:10511C0003F02003202B07D17B681B686FF0200263
:10512C001A61786800F044FC00BF0837BD4680BDAA
:10513C0080B584B000AFF860B9607A60FB6893F812
:10514C003C30012B01D1022382E0FB68012283F861
:10515C003C207B68002B1BD1FB681868BB68196866
:10516C00BB685A68BB68DB6800F0FCF9FB681B681D
:10517C009A69FB681B6822F00C029A61FB681B6839
:10518C009969BB689A68FB681B680A439A615AE084
:10519C007B68042B1CD1FB681868BB681968BB685A
:1051AC005A68BB68DB6800F065FAFB681B689A6993
:1051BC00FB681B6822F440629A61FB681B68996962
:1051CC00BB689B681A02FB681B680A439A613AE049
:1051DC007B68082B1BD1FB681868BB681968BB6817
:1051EC005A68BB68DB6800F0B0FAFB681B68DA69C8
:1051FC00FB681B6822F00C02DA61FB681B68D9693A
:10520C00BB689A68FB681B680A43DA611BE0FB68A1
:10521C001868BB681968BB685A68BB68DB6800F023
:10522C00CFFAFB681B68DA69FB681B6822F44062E2
:10523C00DA61FB681B68D969BB689B681A02FB685A
:10524C001B680A43DA61FB68002283F83C200023C8
:10525C0018461037BD4680BD80B584B000AF78606D
:10526C0039607B6893F83C30012B01D10223B3E009
:10527C007B68012283F83C207B68022283F83D2066
:10528C007B681B689B68FB60FB6823F07703FB6003
:10529C00FB6823F47F43FB607B681B68FA689A60A9
:1052AC003B681B68B3F5005F3ED0B3F5005F00F2BE
:1052BC008780B3F5805F00F08580B3F5805F7FD881
:1052CC00702B1AD0702B7BD8602B50D0602B77D8DA
:1052DC00502B3CD0502B73D8402B58D0402B6FD830
:1052EC00302B64D0302B6BD8202B60D0202B67D880
:1052FC00002B5CD0102B5AD062E07B6818683B689E
:10530C0099683B685A683B68DB6800F0AFFA7B68C9
:10531C001B689B68FB60FB6843F07703FB607B6852
:10532C001B68FA689A604EE07B6818683B6899685D
:10533C003B685A683B68DB6800F098FA7B681B682E
:10534C009A687B681B6842F480429A603BE07B68F9
:10535C0018683B6859683B68DB681A4600F05CF9D2
:10536C007B681B685021184600F066FA2BE07B68BE
:10537C0018683B6859683B68DB681A4600F0B6F958
:10538C007B681B686021184600F056FA1BE07B68AE
:10539C0018683B6859683B68DB681A4600F03CF9B2
:1053AC007B681B684021184600F046FA0BE07B68CE
:1053BC001A683B681B681946104600F03DFA02E07B
:1053CC0000BF00E000BF7B68012283F83D207B68B2
:1053DC00002283F83C20002318461037BD4680BDC0
:1053EC0080B485B000AF786039600023FB603B6807
:1053FC000C2B31D801A252F823F000BF3D54000809
:10540C0065540008655400086554000847540008AA
:10541C006554000865540008655400085154000890
:10542C006554000865540008655400085B54000876
:10543C007B681B685B6BFB600FE07B681B689B6B7E
:10544C00FB600AE07B681B68DB6BFB6005E07B683C
:10545C001B681B6CFB6000E000BFFB681846143730
:10546C00BD4680BC704700BF80B483B000AF78608D
:10547C0000BF0C37BD4680BC704780B483B000AF12
:10548C00786000BF0C37BD4680BC704780B483B0D9
:10549C0000AF786000BF0C37BD4680BC7047000081
:1054AC0080B485B000AF786039607B681B68FB60A6
:1054BC007B68294A93420BD07B68B3F1804F07D0AD
:1054CC007B68264A934203D07B68254A934208D1D5
:1054DC00FB6823F07003FB603B685B68FA6813435E
:1054EC00FB607B681C4A93420BD07B68B3F1804F06
:1054FC0007D07B68194A934203D07B68184A9342C1
:10550C0008D1FB6823F44073FB603B68DB68FA68E6
:10551C001343FB60FB6823F080023B685B69134319
:10552C00FB607B68FA681A603B689A687B68DA6291
:10553C003B681A687B689A627B68074A934203D17E
:10554C003B681A697B681A637B6801225A6100BF49
:10555C001437BD4680BC7047002C0140000400404D
:10556C000008004080B487B000AFF860B9607A6082
:10557C003B60FB681B6A23F00102FB681A62FB6844
:10558C009B697B61FB681B6A3B61FB681F4A93420A
:10559C000BD0FB68B3F1804F07D0FB681C4A9342D9
:1055AC0003D0FB681B4A934201D1012300E0002386
:1055BC00002B08D07B6923F003037B617A697B683D
:1055CC0013437B6103E07B6943F001037B617B69DF
:1055DC0023F0F0037B613B681B01DBB27A69134358
:1055EC007B613B6923F00A033B61BB6803F00A0350
:1055FC003A6913433B61FB687A699A61FB683A69C3
:10560C001A6200BF1C37BD4680BC7047002C01409D
:10561C00000400400008004080B487B000AFF86080
:10562C00B9607A60FB681B6A7B61FB681B6A23F0BC
:10563C000102FB681A62FB689B693B613B6923F0C2
:10564C00F0033B617B681B013A6913433B617B6947
:10565C0023F00A037B617A69BB6813437B61FB68A7
:10566C003A699A61FB687A691A6200BF1C37BD46B9
:10567C0080BC704780B487B000AFF860B9607A60C6
:10568C003B60FB681B6A23F01002FB681A62FB6824
:10569C009B697B61FB681B6A3B617B6923F44073EC
:1056AC007B617B681B027A6913437B617B6923F402
:1056BC0070437B613B681B039BB27A6913437B612C
:1056CC003B6923F0A0033B61BB681B0103F0A00303
:1056DC003A6913433B61FB687A699A61FB683A69E2
:1056EC001A6200BF1C37BD4680BC704780B487B0BF
:1056FC0000AFF860B9607A60FB681B6A23F0100297
:10570C00FB681A62FB689B697B61FB681B6A3B61E7
:10571C007B6923F470437B617B681B037A691343B9
:10572C007B613B6923F0A0033B61BB681B013A69B9
:10573C0013433B61FB687A699A61FB683A691A62A8
:10574C0000BF1C37BD4680BC704780B487B000AF2B
:10575C00F860B9607A603B60FB681B6A23F4807266
:10576C00FB681A62FB68DB697B61FB681B6A3B6147
:10577C007B6923F003037B617A697B6813437B614C
:10578C007B6923F0F0037B613B681B01DBB27A6918
:10579C0013437B613B6923F400733B61BB681B02C1
:1057AC0003F400733A6913433B61FB687A69DA616D
:1057BC00FB683A691A6200BF1C37BD4680BC704753
:1057CC0080B487B000AFF860B9607A603B60FB686A
:1057DC001B6A23F48052FB681A62FB68DB697B61ED
:1057EC00FB681B6A3B617B6923F440737B617B68BC
:1057FC001B027A6913437B617B6923F470437B61E1
:10580C003B681B039BB27A6913437B613B6923F4AE
:10581C0000533B61BB681B0303F400533A69134309
:10582C003B61FB687A69DA61FB683A691A6200BF0E
:10583C001C37BD4680BC704780B485B000AF786023
:10584C0039607B689B68FB60FB6823F07003FB602E
:10585C003A68FB68134343F00703FB607B68FA6804
:10586C009A6000BF1437BD4680BC704780B487B0C7
:10587C0000AFF860B9607A603B60FB689B687B6145
:10588C007B6923F47F437B613B681A027B681A4374
:10589C00BB6813437A6913437B61FB687A699A602E
:1058AC0000BF1C37BD4680BC704780B487B000AFCA
:1058BC00F860B9607A60BB6803F01F03012202FA3A
:1058CC0003F37B61FB681A6A7B69DB431A40FB6854
:1058DC001A62FB681A6ABB6803F01F03796801FA45
:1058EC0003F31A43FB681A6200BF1C37BD4680BC29
:1058FC007047000080B485B000AF786039607B6879
:10590C0093F83C30012B01D1022346E07B68012245
:10591C0083F83C207B68022283F83D207B681B685F
:10592C005B68FB607B681B689B68BB60FB6823F053
:10593C007003FB603B681B68FA681343FB607B6871
:10594C001B68FA685A607B681B68164A93420ED033
:10595C007B681B68B3F1804F09D07B681B68124AC7
:10596C00934204D07B681B68104A93420CD1BB68ED
:10597C0023F08003BB603B685B68BA681343BB6071
:10598C007B681B68BA689A607B68012283F83D20AB
:10599C007B68002283F83C20002318461437BD4650
:1059AC0080BC7047002C01400004004000080040FF
:1059BC0080B483B000AF786000BF0C37BD4680BCAC
:1059CC00704780B483B000AF786000BF0C37BD4621
:1059DC0080BC704780B582B000AF78607B68002BCC
:1059EC0001D101233FE07B6893F83930DBB2002B07
:1059FC0006D17B68002283F838207868FDF714F80C
:105A0C007B68242283F839207B681B68DA687B6802
:105A1C001B6822F40052DA60786800F005F97B68A4
:105A2C001B681A697B681B6822F490421A617B68B8
:105A3C001B685A697B681B6822F02A025A617B68D2
:105A4C001B68DA687B681B6842F40052DA607B687A
:105A5C000022DA637B68202283F839207B682022BD
:105A6C0083F83A20002318460837BD4680BD80B520
:105A7C008AB002AFF860B9603B601346FB8000232C
:105A8C007B61FB6893F83930DBB2202B7CD1BB688F
:105A9C00002B02D0FB88002B01D1012375E0FB68A1
:105AAC0093F83830012B01D102236EE0FB68012200
:105ABC0083F83820FB680022DA63FB68212283F824
:105ACC003920FDF7B7F87861FB68FA889A84FB688F
