:020000040800F2
:1000000000500020612A0008212300082D23000849
:1000100033230008392300083F23000800000000B4
:100020000000000000000000000000004523000860
:1000300051230008000000005D2300086923000828
:10004000A92A0008A92A0008A92A0008A92A000844
:10005000A92A0008A92A0008A92A0008A92A000834
:10006000752300088323000891230008A92A0008AB
:10007000A92A0008A92A0008A92A0008A92A000814
:10008000A92A0008A92A0008A92A0008A92A000804
:10009000A92A0008A92A0008A92A00089F23000805
:1000A000A92A0008B9230008A92A0008A92A0008DB
:1000B000CD230008E1230008F5230008A92A000841
:1000C000A92A0008A92A0008A92A0008A92A0008C4
:1000D000A92A0008A92A0008A92A0008A92A0008B4
:1000E000A92A0008A92A0008A92A0008000000007F
:1000F0000000000000000000000000000000000000
:0C01000000000000000000005FF808F1A3
:10010C0010B5054C237833B9044B13B10448AFF345
:10011C0000800123237010BDA0000020000000000F
:10012C007464000808B5034B1BB103490348AFF3D3
:10013C00008008BD00000000A400002074640008CA
:10014C00034613F8012B002AFBD1181A013870470B
:10015C0080B588B000AF07F1100300221A605A6016
:10016C009A60DA60554B9B69544A43F010039361D3
:10017C00524B9B6903F01003FB60FB684F4B9B6970
:10018C004E4A43F0200393614C4B9B6903F02003D0
:10019C00BB60BB68494B9B69484A43F004039361BD
:1001AC00464B9B6903F004037B607B68434B9B6964
:1001BC00424A43F008039361404B9B6903F00803E8
:1001CC003B603B6800224FF400513D4802F0DFFFDA
:1001DC00002245F203313B4802F0D9FF00224FF4D4
:1001EC008071394802F0D3FF4FF400533B61012377
:1001FC007B610023BB610123FB6107F110031946EE
:10020C002F4802F053FEFC233B61304B7B610223F1
:10021C00BB6107F1100319462B4802F047FE45F26B
:10022C0003333B6101237B610223BB610223FB612E
:10023C0007F110031946234802F038FE4FF480737F
:10024C003B6101237B610223BB610223FB6107F14C
:10025C00100319461C4802F029FE4FF400433B6181
:10026C0000237B610223BB6107F11003194616487A
:10027C0002F01CFE00220521082002F0C4FD08201B
:10028C0002F0DDFD00220521092002F0BCFD092051
:10029C0002F0D5FD002205210A2002F0B4FD0A204F
:1002AC0002F0CDFD00220521172002F0ACFD172035
:1002BC0002F0C5FD00BF2037BD4680BD00100240D6
:1002CC0000100140000C014000080140000011101A
:1002DC0080B500AF02F0E4FB00F088F8FFF738FFC0
:1002EC0002F0DCFA02F0C6F802F016F902F060F93E
:1002FC0002F0DAF901F042FF01F0D2FE02F0F8FA56
:10030C004FF4C87002F02EFC00F0CEF84FF4C87019
:10031C0002F028FC072001F04DFD01F0D1FD27482B
:10032C0004F0CCFB0021264804F04EFC04212448A8
:10033C0004F04AFC214804F06FFB224804F0BEFB99
:10034C00214804F0BBFB204B1B686FF001021A61C3
:10035C001D4B1B6800225A6202F032FC02461B4BFA
:10036C001A6002F021FC0246194B1A60174B1B68ED
:10037C001A46174B1B681749174805F063FC1648BB
:10038C00FFF7DEFE03469AB24FF0FF3312491348D3
:10039C0005F0BBFA4FF47A7002F0E4FB4FF4004125
:1003AC000F4802F0DDFE0346002BF3D00D4B00226C
:1003BC001A600D4B00221A70ECE700BF940200206B
:1003CC0004020020BC0100204C020020BC000020D4
:1003DC00C00000208C640008100100201C030020C9
:1003EC0000080140E4000020F000002080B594B02B
:1003FC0000AF07F1280328220021184605F01AFC4B
:10040C0007F1140300221A605A609A60DA601A61CC
:10041C003B1D00221A605A609A60DA600923BB62A5
:10042C004FF48033FB6200233B630123BB63012346
:10043C003B6402237B644FF48033BB644FF4801322
:10044C00FB6407F12803184602F0DEFE0346002B7E
:10045C0001D001F0A9FC0F237B610223BB610023B7
:10046C00FB614FF480633B6200237B6207F1140352
:10047C000121184603F048F90346002B01D001F086
:10048C0093FC01237B604FF40073BB603B1D18464B
:10049C0003F0D6FA0346002B01D001F085FC00BF17
:1004AC005037BD4680BD000080B58AB000AF012139
:1004BC007A4803F0DFFF0346DAB2794B1A70022157
:1004CC00764803F0D7FF0346DAB2764B1A70032155
:1004DC00724803F0CFFF0346DAB2734B1A70042153
:1004EC006E4803F0C7FF0346DAB2704B1A70052151
:1004FC006A4803F0BFFF0346DAB26D4B1A7006214F
:10050C00664803F0B7FF02466A4B1A60694B1B68DA
:10051C00022B03D9684B01221A7002E0654B0022B2
:10052C001A605F4B1B78DBB21A463B1D63491846B9
:10053C0005F088FB3B1D1846FFF702FE03469AB2F6
:10054C00391D4FF0FF335E4805F0DFF9554B1B7832
:10055C00DBB21A463B1D5B49184605F073FB3B1D8D
:10056C001846FFF7EDFD03469AB2391D4FF0FF33E5
:10057C00534805F0CAF94C4B1B78DBB21A463B1DAD
:10058C005149184605F05EFB3B1D1846FFF7D8FD98
:10059C0003469AB2391D4FF0FF33494805F0B5F9BF
:1005AC00424B1B78DBB21A463B1D4849184605F0F6
:1005BC0049FB3B1D1846FFF7C3FD03469AB2391D94
:1005CC004FF0FF333E4805F0A0F9394B1B78DBB2F6
:1005DC001A463B1D3E49184605F034FB3B1D184698
:1005EC00FFF7AEFD03469AB2391D4FF0FF33344886
:1005FC0005F08BF92F4B1B681A463B1D35491846E5
:10060C0005F020FB3B1D1846FFF79AFD03469AB2F6
:10061C00391D4FF0FF332A4805F077F9204B1B7832
:10062C00DBB2002B13D01F4B1B78DBB2002B0ED090
:10063C001D4B1B78DBB2002B09D01C4B1B78DBB29B
:10064C00002B04D01A4B1B78DBB2002B22D1224B8F
:10065C001B781A460121114803F0F2FE1E4B1B7841
:10066C001A4602210D4803F0EBFE1B4B1B781A4671
:10067C0003210A4803F0E4FE174B1B781A460421A9
:10068C00064803F0DDFE144B1B781A46052103487F
:10069C0003F0D6FE00BF2837BD4680BD50010020B8
:1006AC00130000201400002015000020160000206C
:1006BC0017000020E4000020F00000209C640008DB
:1006CC001C030020BC640008DC640008FC64000807
:1006DC001C6500083C6500080000002080B500AFD8
:1006EC0000220121104802F052FD002202210E4886
:1006FC0002F04DFD00224FF480710C4802F047FDD2
:10070C0000224FF48071084802F041FD00224FF4A2
:10071C000071054802F03BFD00224FF48051024865
:10072C0002F035FD00BF80BD000C01400008014007
:10073C0080B582B000AF0346FB71FB79033B042B01
:10074C002DD801A252F823F069070008750700089C
:10075C00810700088F0700089D070008012201216E
:10076C00134802F014FD1FE001220221104802F090
:10077C000EFD19E001224FF480710E4802F007FDC6
:10078C0012E001224FF48071094802F000FD0BE0E9
:10079C0001224FF40071064802F0F9FC04E0FFF767
:1007AC009DFF01F07DFB00BF00BF0837BD4680BD3B
:1007BC00000C01400008014080B582B000AF7860A9
:1007CC0001F07EFB01F01EFB7B68092B04DC7968D1
:1007DC00012001F0DDFB0EE07B68092B07DD7B6857
:1007EC00632B04DC7968022001F0D2FB03E079680A
:1007FC00032001F0CDFB00BF0837BD4680BD80B59E
:10080C0082B000AF7860396001F05AFB01F0FAFA5F
:10081C003B68092B04DC3968012001F0B9FB09E0C5
:10082C003B68092B06DD3B68632B03DC396802202F
:10083C0001F0AEFB7B68DBB201221946032001F00C
:10084C004FFB00BF0837BD4680BD000080B500AF30
:10085C0001F0D8FA01F034FB01F0D4FA604B1B78AC
:10086C00DBB2002B00F0A8805E4B1B78062B00F24D
:10087C00818001A252F823F0A1080008C1080008E9
:10088C00E1080008010900082109000841090008D5
:10089C006109000800220A21012001F021FB00223D
:1008AC000F21022001F01CFB00220F21032001F07C
:1008BC0017FB6FE000220F21012001F011FB002239
:1008CC000A21022001F00CFB00220F21032001F071
:1008DC0007FB5FE000220F21012001F001FB002249
:1008EC000F21022001F0FCFA00220A21032001F062
:1008FC00F7FA4FE000220F21012001F0F1FA00225B
:10090C000A21022001F0ECFA00220F21032001F051
:10091C00E7FA3FE000220A21012001F0E1FA00226F
:10092C000F21022001F0DCFA00220F21032001F03C
:10093C00D7FA2FE000220A21012001F0D1FA00227F
:10094C000A21022001F0CCFA00220A21032001F036
:10095C00C7FA1FE000220A21012001F0C1FA00228F
:10096C000A21022001F0BCFA00220A21032001F026
:10097C00B7FA0FE000220A21012001F0B1FA00229F
:10098C000A21022001F0ACFA00220A21032001F016
:10099C00A7FA00BF134B1B78052B03D9114B002270
:1009AC001A7005E00F4B1B780133DAB20D4B1A703D
:1009BC000B4B00221A7011E000220F21012001F0D4
:1009CC008FFA00220F21022001F08AFA00220F2157
:1009DC00032001F085FA024B01221A7000BF80BD82
:1009EC000C000020FC00002080B58EB002AF034646
:1009FC00FB80164B1968FB8807F10C00032201924F
:100A0C0000930B460222124905F01CF907F10C0366
:100A1C001846FFF795FB03469AB207F10C014FF00D
:100A2C00FF330C4804F071FF07F10C031846FFF775
:100A3C0087FB03469AB207F10C014FF0FF330648CF
:100A4C0004F063FF00BF3037BD4680BDE4000020DA
:100A5C00586500081C030020DC02002080B58EB015
:100A6C0002AF0346FB71164B1968FB7907F10C00BA
:100A7C000322019200930B460222124905F0E2F880
:100A8C0007F10C031846FFF75BFB03469AB207F11C
:100A9C000C014FF0FF330C4804F037FF07F10C0347
:100AAC001846FFF74DFB03469AB207F10C014FF0C5
:100ABC00FF33064804F029FF00BF3037BD4680BD28
:100ACC00E40000206C6500081C030020DC02002000
:100ADC0080B58CB002AF134B1A68381D03230093FA
:100AEC0013460222104905F0ADF83B1D1846FFF7DE
:100AFC0027FB03469AB2391D4FF0FF330B4804F025
:100B0C0004FF3B1D1846FFF71BFB03469AB2391D29
:100B1C004FF0FF33064804F0F8FE00BF2837BD46FF
:100B2C0080BD00BFE4000020806500081C0300208D
:100B3C00DC02002080B598B000AF78607B681B6841
:100B4C00A74A934240F0BC8001F0AAF9A54B1B7850
:100B5C00002B44D08021A44802F002FB0346012B59
:100B6C0012D14FF0FF331E22A049A14804F0CDFE54
:100B7C00A04B00221A70FFF7B1FD9F4B1B7801337D
:100B8C00DAB29D4B1A7008E0964B00221A709A4B01
:100B9C0000221A70994803F091FF974B1B78052B94
:100BAC001DD94FF0FF3318229549914804F0ADFE42
:100BBC008C4B00221A70904B00221A70914B002221
:100BCC001A60914B00221A708A4B00221A70FFF7A0
:100BDC0085FD894B00221A70884803F06FFF8B4B00
:100BEC001B78DBB2002B5CD0894803F067FF874B86
:100BFC001B78DBB2013B042B62D801A252F823F024
:100C0C00210C0008390C0008510C0008730C00086A
:100C1C00950C00087D4B1B78DBB21A467D4B1B787C
:100C2C00DBB219461046FFF7EAFD49E0774B1B781B
:100C3C00DBB21A46784B1B78DBB219461046FFF72D
:100C4C00DEFD3DE001221221032001F049F96F4B3A
:100C5C001B78DBB21A46714B1B78DBB21946104677
:100C6C00FFF7CDFD2CE001221321032001F038F910
:100C7C00664B1B78DBB21A46694B1B78DBB2194604
:100C8C001046FFF7BCFD1BE0604B1B78DBB21A462D
:100C9C00644B1B78DBB219461046FFF7B0FD00BF62
:100CAC000EE001F00DF95A4803F0B6FE4D4B1B78DF
:100CBC0083F00103DBB2002B02D0504803F0FEFEA0
:100CCC007B681B68B3F1804F40F0D480564B1B8877
:100CDC00002B1ED0544B1B881A4607F10C035349AA
:100CEC00184604F0AFFF504B1B881846FFF77CFEEC
:100CFC0007F10C031846FFF723FA03469AB207F1E3
:100D0C000C014FF0FF333A4804F0FFFD464B002234
:100D1C001A80474B1B88002B1ED0454B1B881A464C
:100D2C0007F10C034349184604F08CFF404B1B8819
:100D3C001846FFF759FE07F10C031846FFF700FAA7
:100D4C0003469AB207F10C014FF0FF33284804F028
:100D5C00DCFD374B00221A80374B1B78092B1CD932
:100D6C004FF0FF330D223549214804F0CEFD00F041
:100D7C009FFD314B00221A70314B1B781E2B05D96D
:100D8C00FFF7A6FE2E4B00221A7073E02C4B1B783B
:100D9C000133DAB22A4B1A706CE0274B1A78294BC4
:100DAC00A3FB021359080B465B000B44D31ADBB2AE
:100DBC00002B4DD10F4B1B78DBB2002B46D0224BB6
:100DCC001B78DBB2002B05D001F06AF81E4B002219
:100DDC001A703DE001F06CF81B4B01221A7037E0E1
:100DEC0000080040FD00002000080140906500084C
:100DFC001C030020E8000020FE000020BC010020A5
:100E0C00B0650008E4000020F0000020E1000020A4
:100E1C009402002013000020140000201500002074
:100E2C001600002017000020F8000020CC650008F8
:100E3C00FA000020E8650008FF0000200C6600089E
:100E4C0000010020ABAAAAAA0D00002001F028F88E
:100E5C00284B1B68002B07D1274B1B7803F0020390
:100E6C00002B01D1FFF7F2FC234B1B780133DAB2D4
:100E7C00214B1A707B681B68204A934236D100F0D4
:100E8C00E7FD4FF0FF3317221D491E4804F03DFDCE
:100E9C001D4B1B78DBB21A4607F144031B4918465D
:100EAC0004F0D0FEFFF71AFC174B1B78DBB2184688
:100EBC00FFF73EFC144B1B78DBB21846FFF7CEFD58
:100ECC0007F144031846FFF73BF903469AB207F1C2
:100EDC0044014FF0FF330B4804F017FD0C4B1B780B
:100EEC00DBB2002B02D10B4803F096FD00BF60373C
:100EFC00BD4680BDE4000020FF000020002C014016
:100F0C001C6600081C030020E80000203466000862
:100F1C00E10000209402002080B500AF082001F011
:100F2C009CFF092001F099FF0A2001F096FF172081
:100F3C0001F093FF00BF80BD80B500AF082001F029
:100F4C00A6FF092001F0A3FF0A2001F0A0FF172043
:100F5C0001F09DFF082001F072FF092001F06FFFE6
:100F6C000A2001F06CFF172001F069FF00BF80BD63
:100F7C00B0B5B0B000AF0346FB80FFF7CDFFC04B60
:100F8C0007F1A4041D460FCD0FC495E803002060A3
:100F9C0004342180BB4B07F18C041D460FCD0FC4CC
:100FAC0095E8030084E80300B74B07F174041D4671
:100FBC000FCD0FC495E8030084E80300B34B07F191
:100FCC005C041D460FCD0FC495E8030084E80300B4
:100FDC00AF4B07F144041D460FCD0FC495E8030039
:100FEC0084E80300AB4B07F12C041D460FCD0FC456
:100FFC0095E8030084E8030001F0AAFDC7F8BC00E3
:10100C0007F10803D7F8BC20A349184604F01AFED0
:10101C00A24B1B68D7F8BC20D31A322B09D84FF03F
:10102C00FF331B229E499F4804F06FFCFFF784FF9F
:10103C008AE19A4AD7F8BC30136007F108031846C6
:10104C00FFF77EF803469AB207F108014FF0FF3321
:10105C00944804F05AFCFB88042B31D104219248AB
:10106C0002F07EF80346012B2AD1FFF765FF8F486B
:10107C0003F024FD07F1A4031846FFF761F80346BB
:10108C009AB207F1A4014FF0FF33864804F03DFCFF
:10109C00874B1B78DBB20133DAB2854B1A7085486B
:1010AC0003F0BAFC824B1B78DBB2052B08D9804BC2
:1010BC0000221A707F4803F001FD7C4803F0ACFC61
:1010CC007B4B1B78DBB2002B1CD00821764802F03E
:1010DC0047F80346012B06D1754B1B78DBB218463B
:1010EC0000F08EF92BE110216F4802F039F803461D
:1010FC00012B40F024816E4B1B78DBB2184600F0BC
:10110C0015FA1CE16C4B1B78DBB2002B00F017813D
:10111C00664803F0D3FC694803F0D0FC674B1B68AE
:10112C0000225A62614B1B6800225A62644B0122F6
:10113C001A7000F0B5FEFB88202B5AD0202B04DC53
:10114C00082B08D0102B2DD0F9E0402B78D0802B19
:10115C0000F0C080F3E00821534802F001F8034688
:10116C00012B40F0E38007F18C031846FEF7E8FFF3
:10117C0003469AB207F18C014FF0FF33494804F053
:10118C00C4FB504B1B78DBB2032B05D14D4B00221B
:10119C001A70FFF7A3FAC9E0FFF7A0FA494B032234
:1011AC001A70C3E01021404801F0DAFF0346012B0E
:1011BC0040F0BE8007F18C031846FEF7C1FF0346D2
:1011CC009AB207F174014FF0FF33364804F09DFBDF
:1011DC003C4B1B78DBB2042B05D13A4B00221A7026
:1011EC00FFF77CFAA4E0FFF779FA364B04221A7069
:1011FC009EE020212C4801F0B3FF0346012B40F068
:10120C00998007F18C031846FEF79AFF03469AB2B1
:10121C0007F15C014FF0FF33224804F076FB294BB9
:10122C001B78DBB2052B05D1264B00221A70FFF779
:10123C0055FA7FE0FFF752FA224B05221A7079E03B
:10124C004021194801F08CFF0346012B74D107F1A2
:10125C008C031846FEF774FF03469AB207F144015B
:10126C004FF0FF330F4804F050FB164B1B78DBB2EA
:10127C00062B29D1FFF732FA124B00221A705BE0D1
:10128C007866000890660008A8660008C06600082A
:10129C00D8660008F066000848660008F4000020D4
:1012AC005C6600081C03002000080140940200202A
:1012BC00E1000020BC010020F00000204C020020C6
:1012CC000D000020E8000020FFF708FA204B062252
:1012DC001A7031E080211F4801F042FF0346012BB8
:1012EC002CD107F18C031846FEF72AFF03469AB25D
:1012FC0007F12C014FF0FF33174804F006FB144B99
:10130C001B78DBB2072B0BD1114B00221A70FFF7A5
:10131C00E5F9124B01221A70114803F07DFB0DE028
:10132C00FFF7DCF90A4B07221A7007E000BF06E052
:10133C0000BF04E000BF02E000BF00E000BFFFF709
:10134C00FBFD084803F068FBC037BD46B0BD00BFCD
:10135C00E8000020000801401C030020FD000020D4
:10136C00BC0100204C02002080B582B000AF0346C7
:10137C000A46FB711346BB71FB79013B052B39D82F
:10138C0001A252F823F000BFAD130008BB130008F4
:10139C00C9130008D7130008E5130008F31300085D
:1013AC00BB791A460121154803F04AF822E0BB79B3
:1013BC001A460221114803F043F81BE0BB791A4688
:1013CC0003210E4803F03CF814E0BB791A460421C3
:1013DC000A4803F035F80DE0BB791A460521074899
:1013EC0003F02EF806E0BB791A460621034803F0F9
:1013FC0027F800BF00BF0837BD4680BD5001002054
:10140C0080B582B000AF0346FB71FB79002B7ED018
:10141C00FB79013B042B7AD801A252F823F000BFD0
:10142C00411400086914000891140008B91400084C
:10143C00E1140008384B1B78DBB2622B5ED8364BBC
:10144C001B78DBB20133DAB2334B1A70324B1B7898
:10145C00DBB219460120FFF787FF4FE02F4B1B78BB
:10146C00DBB2622B4CD82D4B1B78DBB20133DAB2DA
:10147C002A4B1A70294B1B78DBB219460220FFF756
:10148C0073FF3DE0264B1B78DBB2622B3AD8244B22
:10149C001B78DBB20133DAB2214B1A70204B1B786C
:1014AC00DBB219460320FFF75FFF2BE01D4B1B78C7
:1014BC00DBB2622B28D81B4B1B78DBB20133DAB2C0
:1014CC00184B1A70174B1B78DBB219460420FFF728
:1014DC004BFF19E0144B1B78DBB2622B16D8124B66
:1014EC001B78DBB20133DAB20F4B1A700E4B1B7840
:1014FC00DBB219460520FFF737FF07E000BF06E017
:10150C0000BF04E000BF02E000BF00E000BF00BF6E
:10151C000837BD4680BD00BF13000020140000201A
:10152C0015000020160000201700002080B582B0A6
:10153C0000AF0346FB71FB79002B7ED0FB79013B9E
:10154C00042B7AD801A252F823F000BF6D150008C5
:10155C0095150008BD150008E51500080D160008C6
:10156C00384B1B78DBB2012B5ED9364B1B78DBB2C8
:10157C00013BDAB2334B1A70324B1B78DBB2194693
:10158C000120FFF7F1FE4FE02F4B1B78DBB2012B54
:10159C004CD92D4B1B78DBB2013BDAB22A4B1A70BB
:1015AC00294B1B78DBB219460220FFF7DDFE3DE02C
:1015BC00264B1B78DBB2012B3AD9244B1B78DBB2C0
:1015CC00013BDAB2214B1A70204B1B78DBB2194667
:1015DC000320FFF7C9FE2BE01D4B1B78DBB2012B60
:1015EC0028D91B4B1B78DBB2013BDAB2184B1A70B3
:1015FC00174B1B78DBB219460420FFF7B5FE19E038
:10160C00144B1B78DBB2012B16D9124B1B78DBB2B7
:10161C00013BDAB20F4B1A700E4B1B78DBB219463A
:10162C000520FFF7A1FE07E000BF06E000BF04E0C5
:10163C0000BF02E000BF00E000BF00BF0837BD469E
:10164C0080BD00BF130000201400002015000020F6
:10165C00160000201700002080B594B000AF786011
:10166C00384B1B78DBB21A46374B1B7813441A469F
:10167C007B6893424BD8334B1B78DBB21A46324B08
:10168C001B78D31A1A467B68934240D32F4B1B7896
:10169C00DBB21A4607F108032D49184604F0D2FABA
:1016AC0007F108031846FEF74BFD03469AB207F103
:1016BC0008014FF0FF33274804F027F9234B1B7820
:1016CC00DBB21A46244B1B681344234A1360224B8B
:1016DC001B6840F2E632934203D91F4B40F2E732CB
:1016EC001A601D4B1B681846FFF766F81A4B1B68EF
:1016FC001A4A1268934220D3194B01221A704FF0E8
:10170C00FF3319221749134804F0FFF815E07A68E3
:10171C0007F130031449184604F094FA07F130032A
:10172C001846FEF70DFD03469AB207F130014FF053
:10173C00FF33084804F0E9F800E000BF00BF503761
:10174C00BD4680BD0F0000201000002012000020BC
:10175C00086700081C030020E4000020040000209F
:10176C00F0000020206700083C67000880B59EB0A0
:10177C0000AF7860434B1B78DBB21A46424B1B78A8
:10178C0013441A467B68934262D83E4B1B78DBB2FB
:10179C001A463D4B1B78D31A1A467B68934257D393
:1017AC003A4B1B78DBB21A4607F13003384918461E
:1017BC0004F048FA07F130031846FEF7C1FC034663
:1017CC009AB207F130014FF0FF33324804F09DF824
:1017DC002E4B1B78DBB21A462F4B1B6813442E4A38
:1017EC0013602D4B1B6840F2E632934203D92A4B0F
:1017FC0040F2E7321A60284B1B681846FEF7DCFFF4
:10180C00254B1B68254A1268934209D3244B0122AD
:10181C001A704FF0FF33192222491E4804F075F854
:10182C001D4B1B681A4607F10C031F49184604F0A0
:10183C0009FA07F10C031846FEF782FC03469AB22C
:10184C0007F10C014FF0FF33124804F05EF814E07E
:10185C007A6807F158031549184604F0F3F907F1B3
:10186C0058031846FEF76CFC03469AB207F1580170
:10187C004FF0FF33074804F048F800BF7837BD46F7
:10188C0080BD00BF0E0000201000002011000020C1
:10189C00086700081C030020E4000020040000205E
:1018AC00F0000020206700085C6700083C67000817
:1018BC0080B500AF474B1B68DBB219460620FFF71B
:1018CC0053FD454B1B78DBB2002B04D0434B1B68FC
:1018DC000133424A1360404B1B78DBB2033B042BB1
:1018EC002FD801A252F823F0091900081719000883
:1018FC00251900083319000841190008384B1B78CA
:10190C00DBB21A46374B1A601FE0374B1B78DBB241
:10191C001A46344B1A6018E0344B1B78DBB21A466B
:10192C00304B1A6011E0324B1B78DBB21A462D4B50
:10193C001A600AE02F4B1B78DBB21A46294B1A604F
:10194C0003E0284B0A221A6000BF244B1A68254B6F
:10195C001B689A421FDB1F4B1B68002B1BD01F4BB5
:10196C0000221A604FF0FF330F222349234803F063
:10197C00CCFF184B1B68013B164A1360154B1B68B8
:10198C00FE2B06D84FF0FF3316221D491B4803F0DF
:10199C00BCFF00F03BF80F4B1B68002B12D1FEF77D
:1019AC009DFE4FF0FF3322221649144803F0ADFF81
:1019BC00084B00221A60144B00221A70064B0022AE
:1019CC001A7004E0034B1B681846FEF7F5FE00BFC7
:1019DC0080BD00BFE4000020E8000020EC000020E7
:1019EC001300002008000020140000201500002027
:1019FC001600002017000020746700081C0300204C
:101A0C00846700089C670008F000002080B58AB04D
:101A1C0000AF0C4B1B681A463B1D0B49184604F0D3
:101A2C0011F93B1D1846FEF78BFB03469AB2391D84
:101A3C004FF0FF33054803F068FF00BF2837BD4661
:101A4C0080BD00BFE40000205C6700081C03002080
:101A5C0080B500AF064B1B6800225A62044803F0A5
:101A6C002DF8034B1B686FF001021A6100BF80BD9B
:101A7C004C02002080B58CB000AF786000F010FAFA
:101A8C00844803F01BF8834B1B6800225A62814B7D
:101A9C001B686FF001021A617F4803F00FF87E4B50
:101AAC001B6800225A627C4B1B686FF001021A61A2
:101ABC007B681B68794A934240F095807B681B7F5A
:101ACC00012B40F090804FF0FF3309227449754888
:101ADC0003F01BFF744B1B78DBB2002B1AD10021D7
:101AEC00786803F0CBFB0246704B1A606E4B0122F8
:101AFC001A707B681B681A6A7B681B6822F00A02E2
:101B0C001A627B681B681A6A7B681B6842F00202C7
:101B1C001A6268E0644B1B78DBB2012B63D10021A5
:101B2C00786803F0ABFB0246614B1A607B681B685C
:101B3C0000225A625E4B1A685C4B1B689A4207D9AA
:101B4C005B4B1A68594B1B68D31A5A4A13600FE047
:101B5C00564B1A68564B1B689A4209D9544B1A6853
:101B6C00524B1B68D31A03F57F43FF33514A136062
:101B7C004D4B00221A707B681B681A6A7B681B68C5
:101B8C0022F00A021A627B681A687B681B68126A68
:101B9C001A62484B1B68484AA2FB03239B09184650
:101BAC00FFF7E4FD454B1B78DBB29AB2444B1B8824
:101BBC0013449AB2424B1A803E4B1B681A4607F1EB
:101BCC000C034049184604F03DF807F10C03184685
:101BDC00FEF7B6FA03469AB207F10C014FF0FF3349
:101BEC00304803F092FE7B681B682C4A934240F00D
:101BFC00C0807B681B7F022B40F0BB804FF0FF3313
:101C0C0009223149274803F080FE224802F056FF92
:101C1C00214802F053FF2D4B1B78DBB2002B1AD15D
:101C2C000421786803F02AFB0246294B1A60274BE3
:101C3C0001221A707B681B681A6A7B681B6822F089
:101C4C00A0021A627B681B681A6A7B681B6842F0E8
:101C5C0020021A628DE01D4B1B78DBB2012B40F089
:101C6C0088800421786803F009FB0246194B1A603E
:101C7C007B681B6800225A62164B1A68144B1B684F
:101C8C009A422BD9134B1A68114B1B68D31A124A60
:101C9C00136033E0940200204C020020000400404A
:101CAC00C06700081C030020D0000020C4000020E6
:101CBC00C8000020CC000020D34D62101100002081
:101CCC00FA000020CC670008E8670008E00000205C
:101CDC00D4000020D8000020DC000020284B1A681B
:101CEC00284B1B689A4209D9264B1A68244B1B684F
:101CFC00D31A03F57F43FF33234A1360234B00228F
:101D0C001A707B681B681A6A7B681B6822F0A00239
:101D1C001A627B681A687B681B68126A1A621A4B13
:101D2C001B681B4AA2FB03239B091846FFF794FC74
:101D3C00184B1B78DBB29AB2174B1B8813449AB220
:101D4C00154B1A80104B1B681A4607F10C031349EC
:101D5C00184603F077FF07F10C031846FEF7F0F96D
:101D6C0003469AB207F10C014FF0FF330C4803F015
:101D7C00CCFD0C4802F050FE00BF3037BD4680BD94
:101D8C00D4000020D8000020DC000020E00000205F
:101D9C00D34D621012000020F8000020F4670008F8
:101DAC001C0300209402002080B400AF00BFBD468D
:101DBC0080BC704780B582B000AF0346FB7100F069
:101DCC006FF807210B2000F041F8FB79184600F062
:101DDC0006F800F017F800BF0837BD4680BD80B587
:101DEC0082B000AF0346FB71FB790F2B05D8FB7952
:101DFC0019460A2000F02AF800E000BF0837BD465B
:101E0C0080BD000080B582B000AF0023FB710E4B8B
:101E1C001B78FF2B01D10F23FB7100233B600BE0E0
:101E2C003B68DBB20133DBB2FA791146184600F09D
:101E3C000DF83B6801333B603B68072BF0DD00BFBE
:101E4C000837BD4680BD00BF0101002080B582B0BF
:101E5C0000AF03460A46FB711346BB7100224FF4D8
:101E6C0080410D4801F093F9F91D4FF0FF33012229
:101E7C000A4802F09FFBB91D4FF0FF3301220748BF
:101E8C0002F098FB01224FF48041034801F07FF9E6
:101E9C0000BF0837BD4680BD000C01406401002026
:101EAC0080B500AF01210C20FFF7D0FF00BF80BD33
:101EBC0080B500AF00210C20FFF7C8FF00BF80BD2C
:101ECC0080B500AF054BFF221A70044B1B781946E6
:101EDC000920FFF7BBFF00BF80BD00BF0101002040
:101EEC0080B582B000AF0346FB710B46BB71134645
:101EFC007B71FB79082B44D87B79002B20D0234BAA
:101F0C001B78002B0ED1BB79184600F0B9F80346AC
:101F1C00DBB263F07F03DAB2FB7911461846FFF7A8
:101F2C0095FF2FE0194B1B78FF2B2BD1BB7963F05E
:101F3C007F03DAB2FB7911461846FFF787FF21E0E1
:101F4C00124B1B78002B0ED1BB79184600F098F879
:101F5C000346DBB203F07F03DAB2FB791146184675
:101F6C00FFF774FF0EE0094B1B78FF2B0AD1BB79EE
:101F7C0003F07F03DAB2FB7911461846FFF766FFD0
:101F8C0000E000BF0837BD4680BD00BF0101002046
:101F9C0080B584B000AF03463960FB71FF21092086
:101FAC00FFF754FF3B68002B0DDAFB79002B07D0B1
:101FBC00FB790A211846FFF749FFFB79013BFB71BE
:101FCC003B685B423B600123FB6005E0FA6813460B
:101FDC009B0013445B00FB603A68FB6892FBF3F3D5
:101FEC00092BF3DCFB79002B0CD03A68FB6892FBD5
:101FFC00F3F3DAB2FB7911461846FFF727FFFB79AA
:10200C00013BFB71FB681C4A82FB03129210DB172D
:10201C00D31AFB6022E0FB79002B17D0FA68134629
:10202C009B0013445B001A463B6893FBF2F102FBE6
:10203C0001F29A1AFB6892FBF3F3DAB2FB791146C0
:10204C001846FFF703FFFB79013BFB71FB680A4A5B
:10205C0082FB03129210DB17D31AFB60FB68002B78
:10206C00D9DC064B1B7819460920FFF7EFFEFB79EC
:10207C0018461037BD4680BD6766666601010020B4
:10208C0080B483B000AF0346FB71FB79034AD35C89
:10209C009BB218460C37BD4680BC70471800002018
:1020AC0080B582B000AF3B1D00210A461A800A465B
:1020BC009A7000233B601D4B1D4A1A601B4B4FF05E
:1020CC00FF325A60194B4FF480729A60174801F036
:1020DC0029FE0346002B01D0FFF766FE00233B715F
:1020EC0000237B710023BB713B1D012219460F4855
:1020FC0001F0AEFE0346002B01D0FFF755FE012385
:10210C003B7001237B700123BB700023FB703B46AB
:10211C0001221946054801F033FF0346002B01D07C
:10212C00FFF742FE00BF0837BD4680BD50010020BE
:10213C000028004080B584B000AF78607B681B68D5
:10214C000B4A934210D101F053F80A4BDB69094A50
:10215C0043F00063D361074BDB6903F00063FB6062
:10216C00FB68054B01221A6000BF1037BD4680BDCD
:10217C0000280040001002403C04424280B500AFF1
:10218C00174B184A1A60164B4FF482725A60144B54
:10219C0000229A60124B0022DA60114B00221A6165
:1021AC000F4B00225A610E4B4FF400729A610C4B8C
:1021BC000822DA610A4B00221A62094B00225A6289
:1021CC00074B00229A62064B0A22DA62044802F09C
:1021DC006DF90346002B01D0FFF7E6FD00BF80BD73
:1021EC00640100200038004080B588B000AF7860F2
:1021FC0007F1100300221A605A609A60DA607B685B
:10220C001B68164A934224D1154BDB69144A43F4DC
:10221C008043D361124BDB6903F48043FB60FB68A2
:10222C000F4B9B690E4A43F0080393610C4B9B695F
:10223C0003F00803BB60BB684FF420433B610223EF
:10224C007B610323FB6107F110031946054800F07D
:10225C002DFE00BF2037BD4680BD00BF00380040BA
:10226C0000100240000C014080B584B000AF274B39
:10227C009B69264A43F001039361244B9B6903F04D
:10228C000103BB60BB68214BDB69204A43F08053E0
:10229C00D3611E4BDB6903F080537B607B680022AB
:1022AC0001216FF00B0000F0AEFD002201216FF058
:1022BC000A0000F0A8FD002201216FF0090000F0D7
:1022CC00A2FD002201216FF0040000F09CFD002211
:1022DC0001216FF0030000F096FD002201216FF048
:1022EC00010000F090FD0A4B5B68FB60FB6823F07B
:1022FC00E063FB60FB6843F00073FB60044AFB681F
:10230C00536000BF1037BD4680BD00BF00100240B7
:10231C000000014080B400AF00BFBD4680BC7047D8
:10232C0080B400AFFEE780B400AFFEE780B400AF2E
:10233C00FEE780B400AFFEE780B400AF00BFBD463F
:10234C0080BC704780B400AF00BFBD4680BC7047F6
:10235C0080B400AF00BFBD4680BC704780B500AFF5
:10236C0000F0E4FB00BF80BD80B500AF042000F09E
:10237C0027FF00BF80BD80B500AF082000F020FF14
:10238C0000BF80BD80B500AF102000F019FF00BF6A
:10239C0080BD80B500AF202000F012FF402000F07F
:1023AC000FFF802000F00CFF00BF80BD80B500AF98
:1023BC00024802F00FFD00BF80BD00BF4C020020A0
:1023CC0080B500AF024802F005FD00BF80BD00BF24
:1023DC009402002080B500AF024802F0FBFC00BF65
:1023EC0080BD00BF0402002080B500AF024802F09F
:1023FC00F1FC00BF80BD00BFBC01002080B586B0E1
:10240C0000AF7860144A154BD31A7B617B693B6132
:10241C00134B1B68002B02D1114B124A1A60104B44
:10242C001A687B6813443A699A4207D203F0D8FBC6
:10243C0002460C2313604FF0FF3309E0084B1B6876
:10244C00FB60074B1A687B681344054A1360FB68F2
:10245C0018461837BD4680BD00500020000400000F
:10246C00040100206803002080B400AF00BFBD460B
:10247C0080BC704780B586B000AF07F1080300221E
:10248C001A605A609A60DA603B4600221A605A6001
:10249C001F4B204A1A601E4B4FF403725A601C4BA0
:1024AC0000229A601A4B4FF6FF12DA60184B00228A
:1024BC001A61174B00225A61154B00229A6114487D
:1024CC0002F05AFA0346002B01D0FFF76DFC4FF4D3
:1024DC008053BB6007F1080319460D4802F016FE45
:1024EC000346002B01D0FFF75FFC00233B60002369
:1024FC007B603B461946064803F04AF90346002B1D
:10250C0001D0FFF751FC00BF1837BD4680BD00BF9E
:10251C004C020020002C014080B586B000AF07F1C2
:10252C00080300221A605A609A60DA603B46002267
:10253C001A605A601D4B4FF080421A601B4B4A22A6
:10254C005A601A4B00229A60184B4FF6FF12DA6051
:10255C00164B00221A61154B80229A61134802F027
:10256C000BFA0346002B01D0FFF71EFC4FF48053EF
:10257C00BB6007F1080319460C4802F0C7FD03467F
:10258C00002B01D0FFF710FC00233B6000237B6085
:10259C003B461946054803F0FBF80346002B01D0D7
:1025AC00FFF702FC00BF1837BD4680BD9402002027
:1025BC0080B58AB000AF07F1180300221A605A6088
:1025CC009A60DA6007F1100300221A605A603B46E9
:1025DC0000221A605A609A60DA60314B314A1A60F4
:1025EC002F4B47225A602E4B00229A602C4B4FF6F1
:1025FC00FE72DA602A4B00221A61294B00229A6182
:10260C00274802F0B9F90346002B01D0FFF7CCFBA9
:10261C004FF48053BB6107F118031946204802F0B0
:10262C0075FD0346002B01D0FFF7BEFB1C4802F0E2
:10263C0073FA0346002B01D0FFF7B6FB00233B6176
:10264C0000237B6107F110031946154803F0A0F82D
:10265C000346002B01D0FFF7A7FB00233B600123AF
:10266C007B600023BB600523FB603B4600221946C0
:10267C000B4802F0B7FC0346002B01D0FFF794FB8C
:10268C003B4604221946064802F0ACFC0346002BDC
:10269C0001D0FFF789FB00BF2837BD4680BD00BFC6
:1026AC00040200200004004080B586B000AF07F1A2
:1026BC00080300221A605A609A60DA603B460022D6
:1026CC001A605A601D4B1E4A1A601C4B40F2644241
:1026DC005A601A4B00229A60184B4FF6FF12DA60C0
:1026EC00164B00221A61154B00229A61134802F016
:1026FC0043F90346002B01D0FFF756FB4FF48053F0
:10270C00BB6007F1080319460C4802F0FFFC0346B6
:10271C00002B01D0FFF748FB00233B6000237B60BC
:10272C003B461946054803F033F80346002B01D00D
:10273C00FFF73AFB00BF1837BD4680BDBC01002037
:10274C000008004080B58CB000AF786007F11C0326
:10275C0000221A605A609A60DA607B681B68494AEA
:10276C00934214D1484B9B69474A43F400639361ED
:10277C00454B9B6903F40063BB61BB6900220321D9
:10278C00192000F040FB192000F059FB76E07B6823
:10279C001B68B3F1804F14D13B4BDB693A4A43F0D1
:1027AC000103D361384BDB6903F001037B617B6967
:1027BC00002204211C2000F026FB1C2000F03FFB13
:1027CC005CE07B681B68314A93423ED12E4BDB693F
:1027DC002D4A43F00203D3612B4BDB6903F0020358
:1027EC003B613B69284B9B69274A43F00803936183
:1027FC00254B9B6903F00803FB60FB683023FB61EE
:10280C0000233B6202237B6207F11C03194620481C
:10281C0000F04CFB1F4B5B68FB62FB6A23F44063CC
:10282C00FB62FB6A43F0E063FB62FB6A43F4006308
:10283C00FB62184AFB6A5360002201211D2000F044
:10284C00E2FA1D2000F0FBFA18E07B681B68124AC4
:10285C00934213D10C4BDB690B4A43F00403D36155
:10286C00094BDB6903F00403BB60BB680022032146
:10287C001E2000F0C8FA1E2000F0E1FA00BF30372D
:10288C00BD4680BD002C01400010024000040040F9
:10289C00000C0140000001400008004080B500AF72
:1028AC00114B124A1A60104B4FF4E1325A600E4B26
:1028BC0000229A600C4B0022DA600B4B00221A614A
:1028CC00094B0C225A61084B00229A61064B0022DC
:1028DC00DA61054802F0CCFF0346002B01D0FFF76C
:1028EC0063FA00BF80BD00BF1C030020003801400C
:1028FC0080B500AF114B124A1A60104B4FF4E13205
:10290C005A600E4B00229A600C4B0022DA600B4B83
:10291C0000221A61094B0C225A61084B00229A6161
:10292C00064B0022DA61054802F0A2FF0346002B99
:10293C0001D0FFF739FA00BF80BD00BFDC020020D8
:10294C000048004080B58AB000AF786007F11803EA
:10295C0000221A605A609A60DA607B681B68384AF9
:10296C00934232D1374B9B69364A43F4804393618F
:10297C00344B9B6903F480437B617B69314B9B69CE
:10298C00304A43F0040393612E4B9B6903F004031C
:10299C003B613B694FF40073BB610223FB61032372
:1029AC007B6207F118031946274800F07FFA4FF4B1
:1029BC008063BB610023FB6100233B6207F11803BA
:1029CC001946214800F072FA36E07B681B681F4AF2
:1029DC00934231D11B4BDB691A4A43F48023D361F8
:1029EC00184BDB6903F48023FB60FB68154B9B6978
:1029FC00144A43F008039361124B9B6903F00803DC
:102A0C00BB60BB684FF48063BB610223FB61032393
:102A1C007B6207F1180319460D4800F047FA4FF492
:102A2C000063BB610023FB6100233B6207F11803C9
:102A3C001946074800F03AFA00BF2837BD4680BD5A
:102A4C0000380140001002400008014000480040DE
:102A5C00000C0140002103E00B4B5B584350043148
:102A6C000A480B4B42189A42F6D30A4A02E000235A
:102A7C0042F8043B084B9A42F9D3FFF7F5FC03F0FC
:102A8C00B5F8FDF725FC70478C68000800000020A5
:102A9C00A0000020A000002064030020FEE700003E
:102AAC0080B500AF084B1B68074A43F01003136056
:102ABC00032000F09DF9012000F008F8FFF7D4FB8B
:102ACC000023184680BD00BF0020024080B582B0B4
:102ADC0000AF7860124B1A68124B1B7819464FF4F2
:102AEC007A73B3FBF1F3B2FBF3F3184600F0C3F9BE
:102AFC000346002B01D001230EE07B680F2B0AD874
:102B0C00002279684FF0FF3000F07DF9064A7B68AF
:102B1C001360002300E0012318460837BD4680BD32
:102B2C0030000020380000203400002080B400AFBA
:102B3C00054B1B781A46054B1B681344034A13605C
:102B4C0000BFBD4680BC7047380000205C030020ED
:102B5C0080B400AF024B1B681846BD4680BC704762
:102B6C005C03002080B584B000AF7860FFF7F0FF05
:102B7C00B8607B68FB60FB68B3F1FF3F05D0094B85
:102B8C001B781A46FB681344FB6000BFFFF7E0FF9D
:102B9C000246BB68D31AFA689A42F7D800BF1037BE
:102BAC00BD4680BD3800002080B400AF034B1B68CD
:102BBC001B0C1846BD4680BC704700BF002004E0CB
:102BCC0080B400AF034B1B68C3F30B031846BD4620
:102BDC0080BC7047002004E080B485B000AF786002
:102BEC007B6803F00703FB600C4BDB68BB60BA68C7
:102BFC004FF6FF031340BB60FB681A02BB6813431C
:102C0C0043F0BF6343F40033BB60044ABB68D3603A
:102C1C0000BF1437BD4680BC704700BF00ED00E01C
:102C2C0080B400AF044BDB681B0A03F007031846A3
:102C3C00BD4680BC704700BF00ED00E080B483B09F
:102C4C0000AF0346FB7197F90730002B0BDBFB79C8
:102C5C0003F01F02064997F907305B09012000FABF
:102C6C0002F241F8232000BF0C37BD4680BC7047F0
:102C7C0000E100E080B483B000AF0346FB7197F92C
:102C8C000730002B10DBFB7903F01F02094997F981
:102C9C0007305B09012000FA02F2203341F82320AF
:102CAC00BFF34F8FBFF36F8F00BF0C37BD4680BC97
:102CBC00704700BF00E100E080B483B000AF034672
:102CCC00FB7197F90730002B0CDBFB7903F01F022B
:102CDC00074997F907305B09012000FA02F26033CB
:102CEC0041F8232000BF0C37BD4680BC704700BFA5
:102CFC0000E100E080B483B000AF03463960FB71A3
:102D0C0097F90730002B0ADB3B68DAB20C4997F9CC
:102D1C0007301201D2B20B4483F800230AE03B685F
:102D2C00DAB20849FB7903F00F03043B1201D2B26B
:102D3C000B441A7600BF0C37BD4680BC704700BFF1
:102D4C0000E100E000ED00E080B489B000AFF86075
:102D5C00B9607A60FB6803F00703FB61FB69C3F1A0
:102D6C000703042B28BF0423BB61FB690433062B28
:102D7C0002D9FB69033B00E000237B614FF0FF327B
:102D8C00BB6902FA03F3DA43BB681A407B699A40C9
:102D9C004FF0FF317B6901FA03F3D9437B680B4099
:102DAC00134318462437BD4680BC704780B582B0AB
:102DBC0000AF78607B68013BB3F1807F01D30123C6
:102DCC000FE00A4A7B68013B53600F214FF0FF3044
:102DDC00FFF790FF054B00229A60044B07221A6004
:102DEC00002318460837BD4680BD00BF10E000E048
:102DFC0080B582B000AF78607868FFF7EDFE00BF59
:102E0C000837BD4680BD80B586B000AF0346B960BB
:102E1C007A60FB7300237B61FFF702FF78617A68AD
:102E2C00B9687869FFF790FF024697F90F301146A1
:102E3C001846FFF75FFF00BF1837BD4680BD80B551
:102E4C0082B000AF0346FB7197F907301846FFF7C5
:102E5C00F5FE00BF0837BD4680BD80B582B000AF1F
:102E6C000346FB7197F907301846FFF703FF00BFC5
:102E7C000837BD4680BD80B582B000AF78607868F9
:102E8C00FFF794FF034618460837BD4680BD80B552
:102E9C0082B000AF0346FB7197F907301846FFF775
:102EAC000BFF00BF0837BD4680BD000080B48BB05F
:102EBC0000AF7860396000237B6200233B6227E11E
:102ECC0001227B6A02FA03F3FB613B681B68FA6917
:102EDC001340BB61BA69FB699A4240F016813B68AA
:102EEC005B68122B34D0122B0DD8022B2BD0022B5B
:102EFC0004D8002B31D0012B1CD048E0032B43D03D
:102F0C00112B1BD043E0894A934226D0874A934227
:102F1C0006D8874A934220D0864A93421DD036E089
:102F2C00854A934219D0854A934216D0844A9342DB
:102F3C0013D02CE03B68DB683B6228E03B68DB6825
:102F4C0004333B6223E03B68DB6808333B621EE0E2
:102F5C003B68DB680C333B6219E03B689B68002BD9
:102F6C0002D104233B6212E03B689B68012B05D124
:102F7C0008233B627B68FA691A6108E008233B620C
:102F8C007B68FA695A6102E000233B6200BFBB69AF
:102F9C00FF2B01D87B6801E07B6804337B61BB6944
:102FAC00FF2B02D87B6A9B0002E07B6A083B9B00EC
:102FBC003B617B691A680F213B6901FA03F3DB4320
:102FCC001A40396A3B6901FA03F31A437B691A60A8
:102FDC003B685B6803F08053002B00F09680594BE4
:102FEC009B69584A43F001039361564B9B6903F06C
:102FFC000103BB60BB68544A7B6A9B08023352F8DE
:10300C002330FB607B6A03F003039B000F2202FA60
:10301C0003F3DB43FA681340FB607B684B4A934233
:10302C0013D07B684A4A93420DD07B68494A93423D
:10303C0007D07B68484A934201D1032306E004235E
:10304C0004E0022302E0012300E000237A6A02F08C
:10305C00030292009340FA681343FB603A497B6A7F
:10306C009B080233FA6841F823203B685B6803F441
:10307C008033002B06D0394B1A683849BB6913438F
:10308C000B6006E0354B1A68BB69DB4333491340D0
:10309C000B603B685B6803F40033002B06D02F4BAE
:1030AC005A682E49BB6913434B6006E02B4B5A6898
:1030BC00BB69DB43294913404B603B685B6803F4F5
:1030CC008013002B06D0254B9A682449BB69134307
:1030DC008B6006E0214B9A68BB69DB431F491340A8
:1030EC008B603B685B6803F40013002B06D01B4B12
:1030FC00DA681A49BB691343CB6006E0174BDA68F0
:10310C00BB69DB4315491340CB607B6A01337B629F
:10311C003B681A687B6A22FA03F3002B7FF4D0AE6B
:10312C0000BF2C37BD4680BC704700BF000021108B
:10313C0000001110000012100000311000003210BD
:10314C000000221000100240000001400008014065
:10315C00000C01400010014000140140000401402B
:10316C0080B485B000AF78600B467B807B689A6832
:10317C007B881340002B02D00123FB7301E000235A
:10318C00FB73FB7B18461437BD4680BC704780B47C
:10319C0083B000AF78600B467B8013467B707B78E6
:1031AC00002B03D07A887B681A6103E07B881A04B1
:1031BC007B681A6100BF0C37BD4680BC70470000AD
:1031CC0080B582B000AF0346FB80084B5A69FB8880
:1031DC001340002B06D0054AFB885361FB88184628
:1031EC00FDF7C6FE00BF0837BD4680BD0004014098
:1031FC0080B400AF034B01221A6000BFBD4680BCF7
:10320C00704700BF20000E4280B586B000AF7860DA
:10321C007B68002B01D101236CE27B681B6803F0F7
:10322C000103002B00F08780924B5B6803F00C03CA
:10323C00042B0CD08F4B5B6803F00C03082B12D1C2
:10324C008C4B5B6803F48033B3F5803F0BD1894B17
:10325C001B6803F40033002B6CD07B685B68002B7D
:10326C0068D1012346E27B685B68B3F5803F06D1E9
:10327C00804B1B687F4A43F4803313602EE07B68DD
:10328C005B68002B0CD17B4B1B687A4A23F4803390
:10329C001360784B1B68774A23F4802313601DE07E
:1032AC007B685B68B3F5A02F0CD1724B1B68714A1D
:1032BC0043F4802313606F4B1B686E4A43F48033D6
:1032CC0013600BE06B4B1B686A4A23F4803313606A
:1032DC00684B1B68674A23F4802313607B685B6828
:1032EC00002B13D0FFF734FC386108E0FFF730FCFB
:1032FC0002463B69D31A642B01D90323FAE15D4BD7
:10330C001B6803F40033002BF0D014E0FFF720FC13
:10331C00386108E0FFF71CFC02463B69D31A642BAA
:10332C0001D90323E6E1534B1B6803F40033002B54
:10333C00F0D100E000BF7B681B6803F00203002B98
:10334C0063D04C4B5B6803F00C03002B0BD0494B48
:10335C005B6803F00C03082B1CD1464B5B6803F431
:10336C008033002B16D1434B1B6803F00203002B58
:10337C0005D07B681B69012B01D00123BAE13D4BC1
:10338C001B6823F0F8027B685B69DB003949134347
:10339C000B603AE07B681B69002B20D0364B012276
:1033AC001A60FFF7D5FB386108E0FFF7D1FB024646
:1033BC003B69D31A022B01D903239BE12D4B1B68CC
:1033CC0003F00203002BF0D02A4B1B6823F0F80209
:1033DC007B685B69DB00274913430B6015E0264BC8
:1033EC0000221A60FFF7B4FB386108E0FFF7B0FB6E
:1033FC0002463B69D31A022B01D903237AE11D4BF8
:10340C001B6803F00203002BF0D17B681B6803F0F0
:10341C000803002B3AD07B689B69002B19D0174B03
:10342C0001221A60FFF794FB386108E0FFF790FB6C
:10343C0002463B69D31A022B01D903235AE10D4BE7
:10344C005B6A03F00203002BF0D0012000F0DAFAE3
:10345C001CE00A4B00221A60FFF77AFB38610FE080
:10346C00FFF776FB02463B69D31A022B08D90323DC
:10347C0040E100BF00100240000042428004424282
:10348C009E4B5B6A03F00203002BE9D17B681B683F
:10349C0003F00403002B00F0A6800023FB75974B70
:1034AC00DB6903F08053002B0DD1944BDB69934AFD
:1034BC0043F08053D361914BDB6903F08053BB60C5
:1034CC00BB680123FB758E4B1B6803F48073002BC8
:1034DC0018D18B4B1B688A4A43F480731360FFF737
:1034EC0037FB386108E0FFF733FB02463B69D31A20
:1034FC00642B01D90323FDE0814B1B6803F480731B
:10350C00002BF0D07B68DB68012B06D17B4B1B6A50
:10351C007A4A43F0010313622DE07B68DB68002BD1
:10352C000CD1764B1B6A754A23F001031362734B63
:10353C001B6A724A23F0040313621CE07B68DB688D
:10354C00052B0CD16D4B1B6A6C4A43F004031362C0
:10355C006A4B1B6A694A43F0010313620BE0674B29
:10356C001B6A664A23F001031362644B1B6A634AAD
:10357C0023F0040313627B68DB68002B15D0FFF784
:10358C00E7FA38610AE0FFF7E3FA02463B69D31A1F
:10359C0041F28832934201D90323ABE0574B1B6AAB
:1035AC0003F00203002BEED014E0FFF7D1FA3861E0
:1035BC000AE0FFF7CDFA02463B69D31A41F2883292
:1035CC00934201D9032395E04C4B1B6A03F0020391
:1035DC00002BEED1FB7D012B05D1484BDB69474A13
:1035EC0023F08053D3617B68DB69002B00F0818072
:1035FC00424B5B6803F00C03082B61D07B68DB69E2
:10360C00022B46D13F4B00221A60FFF7A1FA38611A
:10361C0008E0FFF79DFA02463B69D31A022B01D949
:10362C00032367E0354B1B6803F00073002BF0D1CC
:10363C007B681B6AB3F5803F08D1304B5B6823F481
:10364C0000327B689B682D4913434B602B4B5B68A6
:10365C0023F474127B68196A7B685B6A0B432749F5
:10366C0013434B60274B01221A60FFF771FA386144
:10367C0008E0FFF76DFA02463B69D31A022B01D919
:10368C00032337E01D4B1B6803F00073002BF0D0B5
:10369C002FE01C4B00221A60FFF75AFA386108E041
:1036AC00FFF756FA02463B69D31A022B01D90323C2
:1036BC0020E0124B1B6803F00073002BF0D118E0D4
:1036CC007B68DB69012B01D1012313E00B4B5B6899
:1036DC00FB60FB6803F480327B681B6A9A4206D15C
:1036EC00FB6803F470127B685B6A9A4201D0012379
:1036FC0000E0002318461837BD4680BD001002407C
:10370C00007000406000424280B584B000AF786029
:10371C0039607B68002B01D10123D0E06A4B1B6818
:10372C0003F007033A689A4210D9674B1B6823F0E1
:10373C00070265493B6813430B60634B1B6803F03E
:10374C0007033A689A4201D00123B8E07B681B68F2
:10375C0003F00203002B20D07B681B6803F00403EA
:10376C00002B05D0594B5B68584A43F4E063536017
:10377C007B681B6803F00803002B05D0534B5B6878
:10378C00524A43F460535360504B5B6823F0F00291
:10379C007B689B684D4913434B607B681B6803F047
:1037AC000103002B40D07B685B68012B07D1474B92
:1037BC001B6803F40033002B15D101237FE07B68D9
:1037CC005B68022B07D1414B1B6803F00073002B85
:1037DC0009D1012373E03D4B1B6803F00203002B5E
:1037EC0001D101236BE0394B5B6823F003027B684A
:1037FC005B68364913434B60FFF7AAF9F8600AE09F
:10380C00FFF7A6F90246FB68D31A41F288329342BD
:10381C0001D9032353E02D4B5B6803F00C027B684A
:10382C005B689B009A42EBD1274B1B6803F00703A4
:10383C003A689A4210D2244B1B6823F007022249A3
:10384C003B6813430B60204B1B6803F007033A687B
:10385C009A4201D0012332E07B681B6803F0040319
:10386C00002B08D0194B5B6823F4E0627B68DB68A3
:10387C00164913434B607B681B6803F00803002B4D
:10388C0009D0124B5B6823F460527B681B69DB0028
:10389C000E4913434B6000F021F801460B4B5B685B
:1038AC001B0903F00F030A4AD35C21FA03F3094AFC
:1038BC001360094B1B681846FFF708F900231846DC
:1038CC001037BD4680BD00BF0020024000100240F2
:1038DC0038680008300000203400002090B48AB012
:1038EC0000AF2A4B3C1D0FCB84E80F00284B1B88E4
:1038FC003B800023FB610023BB6100237B62002320
:10390C007B6100233B62234B5B68FB61FB6903F02B
:10391C000C03042B02D0082B03D02DE01E4B3B6272
:10392C002DE0FB699B0C03F00F0307F128021344F5
:10393C0013F8243C7B61FB6903F48033002B13D018
:10394C00144B5B685B0C03F0010307F12802134472
:10395C0013F8283CBB617B690F4A02FB03F2BB697D
:10396C00B2FBF3F37B6204E07B690C4A02FB03F3CA
:10397C007B627B6A3B6202E0074B3B6200BF3B6AA7
:10398C0018462837BD4690BC704700BF1068000829
:10399C00206800080010024000127A0000093D0067
:1039AC0080B400AF024B1B681846BD4680BC704704
:1039BC003000002080B500AFFFF7F2FF0146054B49
:1039CC005B681B0A03F00703034AD35C21FA03F379
:1039DC00184680BD001002404868000880B500AF52
:1039EC00FFF7DEFF0146054B5B68DB0A03F00703BC
:1039FC00034AD35C21FA03F3184680BD0010024041
:103A0C004868000880B485B000AF78600A4B1B682A
:103A1C000A4AA2FB03235B0A7A6802FB03F3FB60EE
:103A2C0000BFFB685A1EFA60002BF9D100BF143797
:103A3C00BD4680BC704700BF30000020D34D6210E3
:103A4C0080B586B000AF786000233B610023FB603B
:103A5C007B681B6803F00103002B7DD00023FB75F2
:103A6C004F4BDB6903F08053002B0DD14C4BDB69C2
:103A7C004B4A43F08053D361494BDB6903F08053CD
:103A8C00BB60BB680123FB75464B1B6803F480735A
:103A9C00002B18D1434B1B68424A43F480731360CC
:103AAC00FFF756F8386108E0FFF752F802463B6919
:103ABC00D31A642B01D903236DE03A4B1B6803F432
:103ACC008073002BF0D0364B1B6A03F44073FB6001
:103ADC00FB68002B2ED07B685B6803F44073FA689C
:103AEC009A4227D02E4B1B6A23F44073FB602E4B5B
:103AFC0001221A602C4B00221A60294AFB681362BF
:103B0C00FB6803F00103002B14D0FFF721F8386198
:103B1C000AE0FFF71DF802463B69D31A41F28832DE
:103B2C00934201D9032336E01D4B1B6A03F00203B9
:103B3C00002BEED01A4B1B6A23F440727B685B6837
:103B4C00174913430B62FB7D012B05D1144BDB6929
:103B5C00134A23F08053D3617B681B6803F0020384
:103B6C00002B08D00E4B5B6823F440427B689B68AB
:103B7C000B4913434B607B681B6803F01003002B4D
:103B8C0008D0074B5B6823F480027B68DB68044930
:103B9C0013434B60002318461837BD4680BD00BF49
:103BAC0000100240007000404004424290B58DB0BD
:103BBC0000AF7860554B07F10C040FCB84E80F0075
:103BCC00534B1B883B8100237B620023FB62002349
:103BDC003B620023FB610023BB627B68022B7FD01E
:103BEC00102B02D0012B48D08BE04A4B5B68FB6159
:103BFC00484B1B6803F08073002B7FD0FB699B0C38
:103C0C0003F00F0307F13002134413F8243C3B621A
:103C1C00FB6903F48033002B18D03E4B5B685B0CC4
:103C2C0003F0010307F13002134413F8283C7B62C4
:103C3C00FB6903F48033002B0DD0374A7B6AB2FB4F
:103C4C00F3F23B6A02FB03F3FB6204E03B6A334A88
:103C5C0002FB03F3FB622F4B5B6803F48003B3F5A9
:103C6C00800F02D1FB6ABB6248E0FB6A5B002C4A06
:103C7C00A2FB03235B08BB6240E0264B1B6AFB6183
:103C8C00FB6903F44073B3F5807F08D1FB6903F043
:103C9C000203002B03D04FF40043BB621FE0FB690F
:103CAC0003F44073B3F5007F09D11A4B5B6A03F040
:103CBC000203002B03D049F64043BB620FE0FB69C3
:103CCC0003F44073B3F5407F1AD1124B1B6803F415
:103CDC000033002B14D04FF22443BB6210E00FE0F2
:103CEC00FFF77CFE02460B4B5B689B0B03F0030358
:103CFC0001335B00B2FBF3F3BB6202E000BF00E0F8
:103D0C0000BFBB6A18463437BD4690BD2468000816
:103D1C00346800080010024000127A0000093D00CF
:103D2C00ABAAAAAA80B584B000AF78600023FB6070
:103D3C007B68002B01D1012384E07B685B7CDBB2C8
:103D4C00002B05D17B6800221A747868FEF7F2F913
:103D5C007B6802225A74786800F0C8F90346002B7D
:103D6C0004D07B6804225A7401236BE0786800F05D
:103D7C0081FA0346002B04D07B6804225A74012379
:103D8C0060E07B681B685A687B681B6822F007023E
:103D9C005A607B689B68002B05D02C4B1B6B2B4A05
:103DAC0023F001031363294BDB6A23F460727B68F5
:103DBC009B6826491343CB627B685B68B3F1FF3F7A
:103DCC0003D07B685B68FB600EE00120FFF7EEFE22
:103DDC00F860FB68002B04D17B6804225A74012321
:103DEC0030E0FB68013BFB607B681B689B6823F041
:103DFC000F01FB681A0C7B681B680A439A607B688E
:103E0C001B68DB681B0C1B04FA6891B27A68126899
:103E1C000B43D360786800F055FA0346002B04D0AE
:103E2C007B6804225A7401230CE07B680022DA734D
:103E3C007B6801225A737B6801229A737B6801228A
:103E4C005A74002318461037BD4680BD006C0040E4
:103E5C0090B587B000AFF860B9607A6000237B61E1
:103E6C0000233B61FB68002B02D0BB68002B01D107
:103E7C00012380E0FB681B7C012B01D102237AE03B
:103E8C00FB6801221A74FB6802225A747B68002BAF
:103E9C0013D1BB681B781A464FF4616303FB02F223
:103EAC00BB685B7819460B461B015B1A9B001344DD
:103EBC00BA68927813447B611EE0BB681B78184685
:103ECC0000F028FA03461A464FF4616303FB02F430
:103EDC00BB685B78184600F01DFA03461A46134679
:103EEC001B019B1A9B001C44BB689B78184600F076
:103EFC0011FA034623447B617969F86800F053F9A1
:103F0C000346002B07D0FB6804225A74FB6800227E
:103F1C001A7401232FE0FB681B685A68FB681B6846
:103F2C0022F005025A60F86800F064F938613B69C8
:103F3C00B3F1FF3F18D03A697B699A4214D23B69BE
:103F4C0003F5A83303F5C0733B613969F86800F0D9
:103F5C006AF90346002B07D0FB6804225A74FB68ED
:103F6C0000221A74012306E0FB6801225A74FB68D4
:103F7C0000221A74002318461C37BD4690BD000061
:103F8C0080B588B000AFF860B9607A600023FB613F
:103F9C000023BB6100237B61FB68002B02D0BB6854
:103FAC00002B01D1012397E0FB681B7C012B01D175
:103FBC00022391E0FB6801221A74FB6802225A74F6
:103FCC007B68002B0CD1BB68DA78FB68DA73BB68B2
:103FDC005A78FB685A73BB689A78FB689A731AE034
:103FEC00BB68DB78184600F095F903461A46FB6867
:103FFC00DA73BB685B78184600F08CF903461A46F6
:10400C00FB685A73BB689B78184600F083F903462B
:10401C001A46FB689A73FB68DB7B1846FB68597B76
:10402C00FB689B7B1A4600F093F903461A46FB6823
:10403C001A73FB681A7BBB681A70F86800F083F877
:10404C00F861FB69264AA2FB0323DB0A7B617B69CF
:10405C00182B3AD97B69234AA2FB03231B09224A5A
:10406C0002FB03F3FA69D31AFB61F969F86800F0F3
:10407C009AF80346002B07D0FB6804225A74FB689D
:10408C0000221A74012327E0F86800F0B3F8B86135
:10409C00BB69B3F1FF3F18D0BA69FB699A4214D2DD
:1040AC00BB6903F5A83303F5C073BB61B969F86844
:1040BC0000F0B9F80346002B07D0FB6804225A74B1
:1040CC00FB6800221A74012306E0FB6801225A7473
:1040DC00FB6800221A74002318462037BD4680BDA9
:1040EC00C5B3A291ABAAAAAA8051010080B584B035
:1040FC0000AF78600023FB607B68002B01D10123AB
:10410C001DE07B681B685A687B681B6822F00802FC
:10411C005A60FEF71DFDF86009E0FEF719FD024636
:10412C00FB68D31AB3F57A7F01D9032307E07B68C8
:10413C001B685B6803F00803002BEED000231846C5
:10414C001037BD4680BD80B487B000AF78600023C7
:10415C007B8200233B820023FB8100237B617B68F5
:10416C001B689B697B827B681B68DB69FB817B68B6
:10417C001B689B693B827A8A3B8A9A4208D03B8AAD
:10418C001A047B681B68DB699BB213437B6104E0F8
:10419C007B8A1A04FB8913437B617B6918461C37A5
:1041AC00BD4680BC704780B584B000AF7860396084
:1041BC000023FB73786800F05DF80346002B02D0F7
:1041CC000123FB7311E07B681B683A68120C9A613F
:1041DC007B681B683A6892B2DA61786800F072F812
:1041EC000346002B01D00123FB73FB7B18461037D1
:1041FC00BD4680BD80B485B000AF78600023FB81E4
:10420C000023BB817B681B681B6AFB817B681B6876
:10421C005B6ABB81FB891A04BB89134318461437AC
:10422C00BD4680BC704780B584B000AF7860396003
:10423C000023FB73786800F01DF80346002B02D0B6
:10424C000123FB7311E07B681B683A68120C1A623D
:10425C007B681B683A6892B25A62786800F032F850
:10426C000346002B01D00123FB73FB7B1846103750
:10427C00BD4680BD80B584B000AF78600023FB6084
:10428C00FEF766FCF86009E0FEF762FC0246FB688C
:10429C00D31AB3F57A7F01D903230FE07B681B682F
:1042AC005B6803F02003002BEED07B681B685A6818
:1042BC007B681B6842F010025A60002318461037C6
:1042CC00BD4680BD80B584B000AF78600023FB6034
:1042DC007B681B685A687B681B6822F010025A6066
:1042EC00FEF736FCF86009E0FEF732FC0246FB688C
:1042FC00D31AB3F57A7F01D9032307E07B681B68D7
:10430C005B6803F02003002BEED000231846103717
:10431C00BD4680BD80B485B000AF0346FB71002361
:10432C00FB60FB791B09DBB21A4613469B00134456
:10433C005B00FB60FB7903F00F03DAB2FB68DBB2C6
:10434C001344DBB218461437BD4680BC70470000DE
:10435C0080B485B000AF78600B46FB701346BB7021
:10436C000023BB600023FB607B6803F5FA63BB6032
:10437C00FB78022B2DD8FA7813465B001344DB0034
:10438C009B1A2C4AA2FB03235A08BB781A44BB681D
:10439C001A44BB68013B9B081A44BB68013B264985
:1043AC00A1FB03135B09D21ABB68013B2249A1FB99
:1043BC000313DB0913441A1D204BA3FB0213D11A60
:1043CC0049080B4499080B46DB005B1AD31AFB60B7
:1043DC0029E0FA7813465B001344DB009B1A154A5C
:1043EC00A2FB03235A08BB781A44BB681A44BB6867
:1043FC009B081A44BB681049A1FB03135B09D21A32
:10440C00BB680D49A1FB0313DB0913449A1C0B4B2E
:10441C00A3FB0213D11A49080B4499080B46DB0085
:10442C005B1AD31AFB60FB68DBB218461437BD4627
:10443C0080BC7047398EE3381F85EB512549922497
:10444C0080B487B000AFF860B9607A6000237B61FC
:10445C00074B7B61BB689B007A6913447B617B696A
:10446C007A6892B21A6000BF1C37BD4680BC704798
:10447C00006C004080B485B000AF786039600023D8
:10448C00FB600023BB60084BFB603B689B00FA6839
:10449C001344FB60FB681B689BB2BB60BB6818468F
:1044AC001437BD4680BC7047006C004080B582B0AC
:1044BC0000AF78607B68002B01D1012376E07B682C
:1044CC005B6A002B08D17B685B68B3F5827F09D0EF
:1044DC007B680022DA6105E07B6800221A617B6848
:1044EC0000225A617B6800229A627B6893F85130F3
:1044FC00DBB2002B06D17B68002283F85020786851
:10450C00FDF772FE7B68022283F851207B681B68E2
:10451C001A687B681B6822F040021A607B685B6833
:10452C0003F482727B689B6803F404431A437B6830
:10453C00DB6803F400631A437B681B6903F0020316
:10454C001A437B685B6903F001031A437B689B6920
:10455C0003F400731A437B68DB6903F038031A43D6
:10456C007B681B6A03F0800342EA03017B689B6A49
:10457C0003F400527B681B680A431A607B689B69D2
:10458C001A0C7B681B6802F004025A607B681B687B
:10459C00DA697B681B6822F40062DA617B680022AE
:1045AC005A657B68012283F851200023184608378E
:1045BC00BD4680BD80B588B000AFF860B9603B6087
:1045CC001346FB800023FB77FB6893F85030012BDC
:1045DC0001D1022326E1FB68012283F85020FEF76B
:1045EC00B7FAB861FB88FB82FB6893F85130DBB2F9
:1045FC00012B02D00223FB770BE1BB68002B02D00E
:10460C00FB88002B02D10123FB7702E1FB6803221C
:10461C0083F85120FB6800225A65FB68BA681A635C
:10462C00FB68FA889A86FB68FA88DA86FB680022AF
:10463C009A63FB6800229A87FB680022DA87FB6882
:10464C0000225A64FB6800221A64FB689B68B3F56D
:10465C00004F0FD1FB681B681A68FB681B6822F0BF
:10466C0040021A60FB681B681A68FB681B6842F4FE
:10467C0080421A60FB681B681B6803F04003402BE8
:10468C0007D0FB681B681A68FB681B6842F0400285
:10469C001A60FB68DB68B3F5006F4BD1FB685B6895
:1046AC00002B02D0FB8A012B3ED1FB681B6B1A88B6
:1046BC00FB681B68DA60FB681B6B9A1CFB681A634F
:1046CC00FB68DB8E9BB2013B9AB2FB68DA862BE06F
:1046DC00FB681B689B6803F00203022B12D1FB687A
:1046EC001B6B1A88FB681B68DA60FB681B6B9A1CD7
:1046FC00FB681A63FB68DB8E9BB2013B9AB2FB68CA
:10470C00DA8611E0FEF724FA0246BB69D31A3A683E
:10471C009A4203D83B68B3F1FF3F02D13B68002BB0
:10472C0002D10323FB7774E0FB68DB8E9BB2002B7A
:10473C00CED14CE0FB685B68002B02D0FB8A012BCE
:10474C0040D1FB681A6BFB681B680C3312781A702B
:10475C00FB681B6B5A1CFB681A63FB68DB8E9BB2F5
:10476C00013B9AB2FB68DA862CE0FB681B689B68FD
:10477C0003F00203022B13D1FB681A6BFB681B6856
:10478C000C3312781A70FB681B6B5A1CFB681A638B
:10479C00FB68DB8E9BB2013B9AB2FB68DA8611E0B8
:1047AC00FEF7D6F90246BB69D31A3A689A4203D887
:1047BC003B68B3F1FF3F02D13B68002B02D10323CE
:1047CC00FB7726E0FB68DB8E9BB2002BCDD1BA6960
:1047DC003968F86800F0B2F80346002B02D0FB6889
:1047EC0020225A65FB689B68002B0AD100233B6191
:1047FC00FB681B68DB683B61FB681B689B683B6163
:10480C003B69FB685B6D002B02D00123FB7700E05A
:10481C0000BFFB68012283F85120FB68002283F85B
:10482C005020FB7F18462037BD4680BD80B588B030
:10483C0000AFF860B9603B601346FB71FEF788F976
:10484C000246BB6A9B1A3A681344FB61FEF780F977
:10485C00B861394B1B685B011B0DFA6902FB03F352
:10486C007B6154E03B68B3F1FF3F50D0FEF770F929
:10487C000246BB69D31AFA699A4202D9FB69002B2A
:10488C003DD1FB681B685A68FB681B6822F0E0028C
:10489C005A60FB685B68B3F5827F11D1FB689B683B
:1048AC00B3F5004F04D0FB689B68B3F5806F07D15C
:1048BC00FB681B681A68FB681B6822F040021A60D0
:1048CC00FB689B6AB3F5005F0FD1FB681B681A6825
:1048DC00FB681B6822F400521A60FB681B681A689C
:1048EC00FB681B6842F400521A60FB68012283F8D3
:1048FC005120FB68002283F85020032317E07B69CA
:10490C00002B01D10023FB617B69013B7B61FB68C0
:10491C001B689A68BB681340BA689A420CBF0123A3
:10492C000023DBB21A46FB799A429BD1002318462E
:10493C002037BD4680BD00BF3000002080B586B05A
:10494C0002AFF860B9607A607B680093BB680022A4
:10495C008021F868FFF76AFF0346002B07D0FB683D
:10496C005B6D43F02002FB685A65032300E00023D3
:10497C0018461037BD4680BD80B582B000AF786058
:10498C007B68002B01D1012341E07B6893F83D301B
:10499C00DBB2002B06D17B68002283F83C207868C0
:1049AC00FDF7D0FE7B68022283F83D207B681A68F5
:1049BC007B6804331946104600F0C0FC7B6801226A
:1049CC0083F846207B68012283F83E207B68012215
:1049DC0083F83F207B68012283F840207B6801220A
:1049EC0083F841207B68012283F842207B680122F6
:1049FC0083F843207B68012283F844207B680122E2
:104A0C0083F845207B68012283F83D20002318465B
:104A1C000837BD4680BD000080B485B000AF78601B
:104A2C007B6893F83D30DBB2012B01D001233AE0D7
:104A3C007B68022283F83D207B681B68DA687B6800
:104A4C001B6842F00102DA607B681B68184A9342CB
:104A5C000ED07B681B68B3F1804F09D07B681B6854
:104A6C00144A934204D07B681B68134A934211D1B9
:104A7C007B681B689B6803F00703FB60FB68062BD5
:104A8C0010D07B681B681A687B681B6842F00102B7
:104A9C001A6007E07B681B681A687B681B6842F029
:104AAC0001021A60002318461437BD4680BC7047BB
:104ABC00002C0140000400400008004080B483B08A
:104ACC0000AF78607B681B68DA687B681B6822F033
:104ADC000102DA607B681B681A6A41F211131340F9
:104AEC00002B0FD17B681B681A6A40F244431340B9
:104AFC00002B07D17B681B681A687B681B6822F047
:104B0C0001021A607B68012283F83D2000231846BD
:104B1C000C37BD4680BC704780B582B000AF786062
:104B2C007B68002B01D1012341E07B6893F83D3079
:104B3C00DBB2002B06D17B68002283F83C2078681E
:104B4C0000F039F87B68022283F83D207B681A68F4
:104B5C007B6804331946104600F0F0FB7B68012299
:104B6C0083F846207B68012283F83E207B68012273
:104B7C0083F83F207B68012283F840207B68012268
:104B8C0083F841207B68012283F842207B68012254
:104B9C0083F843207B68012283F844207B68012240
:104BAC0083F845207B68012283F83D2000231846BA
:104BBC000837BD4680BD80B483B000AF786000BFBD
:104BCC000C37BD4680BC704780B584B000AF7860B0
:104BDC0039603B68002B04D17B6893F83E30DBB224
:104BEC0013E03B68042B04D17B6893F83F30DBB2B5
:104BFC000BE03B68082B04D17B6893F84030DBB2A8
:104C0C0003E07B6893F84130DBB2FB733B68002B0D
:104C1C0004D17B6893F84230DBB213E03B68042B81
:104C2C0004D17B6893F84330DBB20BE03B68082B74
:104C3C0004D17B6893F84430DBB203E07B6893F8D3
:104C4C004530DBB2BB73FB7B012B02D1BB7B012B51
:104C5C0001D00123B3E03B68002B04D17B68022216
:104C6C0083F83E2013E03B68042B04D17B680222BE
:104C7C0083F83F200BE03B68082B04D17B680222B1
:104C8C0083F8402003E07B68022283F841203B68D4
:104C9C00002B04D17B68022283F8422013E03B688E
:104CAC00042B04D17B68022283F843200BE03B6881
:104CBC00082B04D17B68022283F8442003E07B6834
:104CCC00022283F845203B680C2B41D801A252F8F4
:104CDC0023F000BF154D00085D4D00085D4D000828
:104CEC005D4D0008274D00085D4D00085D4D000826
:104CFC005D4D0008394D00085D4D00085D4D000804
:104D0C005D4D00084B4D00087B681B68DA687B68BA
:104D1C001B6842F00202DA601BE07B681B68DA68F1
:104D2C007B681B6842F00402DA6012E07B681B6847
:104D3C00DA687B681B6842F00802DA6009E07B687D
:104D4C001B68DA687B681B6842F01002DA6000E0CE
:104D5C0000BF7B681B6801223968184600F0F3FC21
:104D6C007B681B68184A93420ED07B681B68B3F1B2
:104D7C00804F09D07B681B68144A934204D07B682F
:104D8C001B68134A934211D17B681B689B6803F024
:104D9C000703BB60BB68062B10D07B681B681A68C6
:104DAC007B681B6842F001021A6007E07B681B6895
:104DBC001A687B681B6842F001021A6000231846CF
:104DCC001037BD4680BD00BF002C014000040040E0
:104DDC000008004080B582B000AF78607B681B682B
:104DEC001B6903F00203022B22D17B681B68DB6872
:104DFC0003F00203022B1BD17B681B686FF00202CD
:104E0C001A617B6801221A777B681B689B6903F027
:104E1C000303002B03D07868FCF72CFE05E07868C0
:104E2C0000F070FA786800F076FA7B6800221A7746
:104E3C007B681B681B6903F00403042B22D17B687D
:104E4C001B68DB6803F00403042B1BD17B681B6815
:104E5C006FF004021A617B6802221A777B681B6868
:104E6C009B6903F44073002B03D07868FCF702FEB7
:104E7C0005E0786800F046FA786800F04CFA7B6838
:104E8C0000221A777B681B681B6903F00803082B48
:104E9C0022D17B681B68DB6803F00803082B1BD14D
:104EAC007B681B686FF008021A617B6804221A7712
:104EBC007B681B68DB6903F00303002B03D0786865
:104ECC00FCF7D8FD05E0786800F01CFA786800F073
:104EDC0022FA7B6800221A777B681B681B6903F037
:104EEC001003102B22D17B681B68DB6803F01003C6
:104EFC00102B1BD17B681B686FF010021A617B684A
:104F0C0008221A777B681B68DB6903F44073002B5B
:104F1C0003D07868FCF7AEFD05E0786800F0F2F994
:104F2C00786800F0F8F97B6800221A777B681B68B8
:104F3C001B6903F00103012B0ED17B681B68DB6836
:104F4C0003F00103012B07D17B681B686FF0010292
:104F5C001A617868FBF7EEFD7B681B681B6903F030
:104F6C008003802B0ED17B681B68DB6803F0800309
:104F7C00802B07D17B681B686FF080021A61786800
:104F8C0000F06DFC7B681B681B6903F04003402B31
:104F9C000ED17B681B68DB6803F04003402B07D104
:104FAC007B681B686FF040021A61786800F0BCF9EE
:104FBC007B681B681B6903F02003202B0ED17B68D8
:104FCC001B68DB6803F02003202B07D17B681B6870
:104FDC006FF020021A61786800F038FC00BF0837C7
:104FEC00BD4680BD80B584B000AFF860B9607A6012
:104FFC00FB6893F83C30012B01D1022382E0FB6863
:10500C00012283F83C207B68002B1BD1FB681868BD
:10501C00BB681968BB685A68BB68DB6800F0F0F9BC
:10502C00FB681B689A69FB681B6822F00C029A618A
:10503C00FB681B689969BB689A68FB681B680A4324
:10504C009A615AE07B68042B1CD1FB681868BB681A
:10505C001968BB685A68BB68DB6800F059FAFB68D2
:10506C001B689A69FB681B6822F440629A61FB68B2
:10507C001B689969BB689B681A02FB681B680A432A
:10508C009A613AE07B68082B1BD1FB681868BB68F7
:10509C001968BB685A68BB68DB6800F0A4FAFB6847
:1050AC001B68DA69FB681B6822F00C02DA61FB688A
:1050BC001B68D969BB689A68FB681B680A43DA618C
:1050CC001BE0FB681868BB681968BB685A68BB684A
:1050DC00DB6800F0C3FAFB681B68DA69FB681B68C5
:1050EC0022F44062DA61FB681B68D969BB689B6873
:1050FC001A02FB681B680A43DA61FB68002283F81A
:10510C003C20002318461037BD4680BD80B584B0C6
:10511C0000AF786039607B6893F83C30012B01D18B
:10512C000223A6E07B68012283F83C207B680222E4
:10513C0083F83D207B681B689B68FB60FB6823F051
:10514C007703FB60FB6823F47F43FB607B681B6881
:10515C00FA689A603B681B68402B67D0402B0BD8D1
:10516C00102B73D0102B02D8002B6FD078E0202B93
:10517C006CD0302B6AD073E0702B0DD0702B04D810
:10518C00502B33D0602B41D06AE0B3F5805F66D0F2
:10519C00B3F5005F17D063E07B6818683B689968CB
:1051AC003B685A683B68DB6800F0AEFA7B681B68AA
:1051BC009B68FB60FB6843F07703FB607B681B68B4
:1051CC00FA689A604CE07B6818683B6899683B68A1
:1051DC005A683B68DB6800F097FA7B681B689A6832
:1051EC007B681B6842F480429A6039E07B681868DF
:1051FC003B6859683B68DB681A4600F05BF97B68D2
:10520C001B685021184600F065FA29E07B68186885
:10521C003B6859683B68DB681A4600F0B5F97B6857
:10522C001B686021184600F055FA19E07B68186875
:10523C003B6859683B68DB681A4600F03BF97B68B1
:10524C001B684021184600F045FA09E07B681A6893
:10525C003B681B681946104600F03CFA00E000BFA2
:10526C007B68012283F83D207B68002283F83C2078
:10527C00002318461037BD4680BD000080B485B0B1
:10528C0000AF786039600023FB603B680C2B31D891
:10529C0001A252F823F000BFD952000801530008B4
:1052AC000153000801530008E352000801530008A1
:1052BC000153000801530008ED5200080153000887
:1052CC000153000801530008F75200087B681B6863
:1052DC005B6BFB600FE07B681B689B6BFB600AE001
:1052EC007B681B68DB6BFB6005E07B681B681B6CD9
:1052FC00FB6000E000BFFB6818461437BD4680BC5D
:10530C00704700BF80B483B000AF786000BF0C372B
:10531C00BD4680BC704780B483B000AF786000BFDE
:10532C000C37BD4680BC704780B483B000AF78604A
:10533C0000BF0C37BD4680BC7047000080B485B000
:10534C0000AF786039607B681B68FB607B68294A1A
:10535C0093420BD07B68B3F1804F07D07B68264A11
:10536C00934203D07B68254A934208D1FB6823F013
:10537C007003FB603B685B68FA681343FB607B68F7
:10538C001C4A93420BD07B68B3F1804F07D07B68EB
:10539C00194A934203D07B68184A934208D1FB68A0
:1053AC0023F44073FB603B68DB68FA681343FB60D3
:1053BC00FB6823F080023B685B691343FB607B68EE
:1053CC00FA681A603B689A687B68DA623B681A680C
:1053DC007B689A627B68074A934203D13B681A69DF
:1053EC007B681A637B6801225A6100BF1437BD4683
:1053FC0080BC7047002C01400004004000080040B5
:10540C0080B487B000AFF860B9607A603B60FB682D
:10541C001B6A23F00102FB681A62FB689B697B61C3
:10542C00FB681B6A3B61FB681F4A93420BD0FB680D
:10543C00B3F1804F07D0FB681C4A934203D0FB6842
:10544C001B4A934201D1012300E00023002B08D01A
:10545C007B6923F003037B617A697B6813437B616F
:10546C0003E07B6943F001037B617B6923F0F0036C
:10547C007B613B681B01DBB27A6913437B613B693F
:10548C0023F00A033B61BB6803F00A033A69134338
:10549C003B61FB687A699A61FB683A691A6200BFE2
:1054AC001C37BD4680BC7047002C014000040040F6
:1054BC000008004080B487B000AFF860B9607A6033
:1054CC00FB681B6A7B61FB681B6A23F00102FB68AB
:1054DC001A62FB689B693B613B6923F0F0033B61FB
:1054EC007B681B013A6913433B617B6923F00A0318
:1054FC007B617A69BB6813437B61FB683A699A618B
:10550C00FB687A691A6200BF1C37BD4680BC7047C5
:10551C0080B487B000AFF860B9607A603B60FB681C
:10552C001B6A23F01002FB681A62FB689B697B61A3
:10553C00FB681B6A3B617B6923F440737B617B686E
:10554C001B027A6913437B617B6923F470437B6193
:10555C003B681B039BB27A6913437B613B6923F065
:10556C00A0033B61BB681B0103F0A0033A69134322
:10557C003B61FB687A699A61FB683A691A6200BF01
:10558C001C37BD4680BC704780B487B000AFF86054
:10559C00B9607A60FB681B6A23F01002FB681A6220
:1055AC00FB689B697B61FB681B6A3B617B6923F42D
:1055BC0070437B617B681B037A6913437B613B6996
:1055CC0023F0A0033B61BB681B013A6913433B61A9
:1055DC00FB687A699A61FB683A691A6200BF1C37EA
:1055EC00BD4680BC704780B487B000AFF860B9602E
:1055FC007A603B60FB681B6A23F48072FB681A625A
:10560C00FB68DB697B61FB681B6A3B617B6923F090
:10561C0003037B617A697B6813437B617B6923F0AD
:10562C00F0037B613B681B01DBB27A6913437B613E
:10563C003B6923F400733B61BB681B0203F40073EA
:10564C003A6913433B61FB687A69DA61FB683A6932
:10565C001A6200BF1C37BD4680BC704780B487B04F
:10566C0000AFF860B9607A603B60FB681B6A23F49A
:10567C008052FB681A62FB68DB697B61FB681B6A02
:10568C003B617B6923F440737B617B681B027A6905
:10569C0013437B617B6923F470437B613B681B0381
:1056AC009BB27A6913437B613B6923F400533B61E2
:1056BC00BB681B0303F400533A6913433B61FB685B
:1056CC007A69DA61FB683A691A6200BF1C37BD4619
:1056DC0080BC704780B485B000AF786039607B685F
:1056EC009B68FB60FB6823F07003FB603A68FB6807
:1056FC00134343F00703FB607B68FA689A6000BFB2
:10570C001437BD4680BC704780B487B000AFF860DA
:10571C00B9607A603B60FB689B687B617B6923F4B2
:10572C007F437B613B681A027B681A43BB68134357
:10573C007A6913437B61FB687A699A6000BF1C37F6
:10574C00BD4680BC704780B487B000AFF860B960CC
:10575C007A60BB6803F01F03012202FA03F37B613A
:10576C00FB681A6A7B69DB431A40FB681A62FB68A8
:10577C001A6ABB6803F01F03796801FA03F31A4332
:10578C00FB681A6200BF1C37BD4680BC7047000026
:10579C0080B485B000AF786039607B6893F83C309A
:1057AC00012B01D1022346E07B68012283F83C20C7
:1057BC007B68022283F83D207B681B685B68FB607A
:1057CC007B681B689B68BB60FB6823F07003FB6005
:1057DC003B681B68FA681343FB607B681B68FA68BC
:1057EC005A607B681B68164A93420ED07B681B6814
:1057FC00B3F1804F09D07B681B68124A934204D0E6
:10580C007B681B68104A93420CD1BB6823F0800361
:10581C00BB603B685B68BA681343BB607B681B6802
:10582C00BA689A607B68012283F83D207B6800226D
:10583C0083F83C20002318461437BD4680BC7047C3
:10584C00002C0140000400400008004080B483B0EC
:10585C0000AF786000BF0C37BD4680BC704780B489
:10586C0083B000AF786000BF0C37BD4680BC70477A
:10587C0080B582B000AF78607B68002B01D101232A
:10588C003FE07B6893F83930DBB2002B06D17B68A4
:10589C00002283F838207868FDF754F87B682422BE
:1058AC0083F839207B681B68DA687B681B6822F4F4
:1058BC000052DA60786800F005F97B681B681A6999
:1058CC007B681B6822F490421A617B681B685A69DA
:1058DC007B681B6822F02A025A617B681B68DA68B5
:1058EC007B681B6842F40052DA607B680022DA6342
:1058FC007B68202283F839207B68202283F83A20A9
:10590C00002318460837BD4680BD80B58AB002AF6B
:10591C00F860B9603B601346FB8000237B61FB6839
:10592C0093F83930DBB2202B7CD1BB68002B02D032
:10593C00FB88002B01D1012375E0FB6893F838300C
:10594C00012B01D102236EE0FB68012283F8382081
:10595C00FB680022DA63FB68212283F83920FDF70B
:10596C00F7F87861FB68FA889A84FB68FA88DA841D
:10597C00FB689B68B3F5805F08D1FB681B69002B43
:10598C0004D10023FB61BB68BB6103E0BB68FB6116
:10599C000023BB61FB68002283F838202AE03B68B7
:1059AC0000937B6900228021F86800F040F80346E0
:1059BC00002B01D0032336E0FB69002B0BD1BB6914
:1059CC001B881A46FB681B68C2F308025A60BB6945
:1059DC000233BB6107E0FB691A78FB681B685A60ED
:1059EC00FB690133FB61FB68DB8C9BB2013B9AB218
:1059FC00FB68DA84FB68DB8C9BB2002BCFD13B6855
:105A0C0000937B6900224021F86800F010F80346EF
:105A1C00002B01D0032306E0FB68202283F83920F9
:105A2C00002300E0022318462037BD4680BD80B518
:105A3C0084B000AFF860B9603B601346FB712CE09A
:105A4C00BB69B3F1FF3F28D0BB69002B07D0FDF732
:105A5C007FF802463B68D31ABA699A421DD2FB689A
:105A6C001B68DA68FB681B6822F4D072DA60FB688A
:105A7C001B685A69FB681B6822F001025A61FB68BB
:105A8C00202283F83920FB68202283F83A20FB6817
:105A9C00002283F8382003230FE0FB681B681A6888
:105AAC00BB681340BA689A420CBF01230023DBB2D7
:105ABC001A46FB799A42C3D0002318461037BD46CC
:105ACC0080BD000080B584B000AF78607B681B6837
